:02000004080AE8
:1000000000000A0854160A08000006000600050150
:080010000402E50C00000000F1
:0400180098120A0828
:10001C0009480A4908B5884205D0094A824202D0EB
:10002C00121A01F041F80748074A0021121A01F090
:10003C0049F8064808BD00BF00000020A4150A08B6
:10004C008800002088000020010500200105002008
:10005C0070B500F0DFFE0025054E064CA41BA4086D
:10006C00AC4200D170BD56F8043B98470135F7E718
:10007C0080150A089C150A0800F014B808B500F0A1
:10008C0063F8BDE8084000F07DBE00F005BB00F051
:10009C000BBB0078B0FA80F0400970470123037065
:1000AC007047000010B5204C0121208800F02EFF75
:1000BC0020881E4C002100F03AFF2088012100F01E
:1000CC0025FF20881A4C002100F031FF20880121E7
:1000DC0000F01CFF2088174C002100F028FF20881E
:1000EC00012100F013FF2088002100F020FF124BAB
:1000FC000321188800F00AFF104B0321188800F028
:10010C0005FF0F4B0321188800F000FF0D4B032156
:10011C00188800F0FBFE00F041FDBDE810404FF4E4
:10012C00165100F021BD00BF0C0000201000002073
:10013C0018000020140000208C000020000000207B
:10014C0008000020040000202DE9F04F85B000F0DD
:10015C002DF9734B734E188800F002FF724B02900E
:10016C00188800F0FDFE714B0546188800F0F8FE6B
:10017C006F4B0446188800F0F3FE00210190308884
:10018C0000F0D5FE6B4A0021108800F0D0FE6A4BBF
:10019C00DFF8A8B11888002100F0C9FE0021BBF8D7
:1001AC00000000F0C4FE00F0C3FF074600F0C0FFE3
:1001BC004FF0030C90FBFCFC0CEB4C0CA0EB0C017B
:1001CC000129DFF87CA1DFF87C91DFF87C815A4BA8
:1001DC0038D002295FD0574A002940F087805B490C
:1001EC0010880B7883F001030B70012100F09FFE47
:1001FC00BA0716D0012D07D1DAF8003023B900F078
:10020C00CDFC534900F0B5FB019B029AC8F80030B5
:10021C00504BCAF80050C9F800401A6005B0BDE850
:10022C00F08F4D4A01211378308883F0010313704D
:10023C0000F07DFEDAF800302B43E5D100F0AEFC87
:10024C004649DFE746480391027882F001020270CA
:10025C00188800F06CFE17F0030F039909D0012CDD
:10026C00D2D1D9F80030002BCED100F097FC3D490B
:10027C00C8E7394A3088137883F00103137000F013
:10028C0056FE012CC0D1D9F80030002BBCD100F0A7
:10029C0085FC3549B6E7354A01211378BBF80000D7
:1002AC0083F00103137000F042FEBB070AD0019BE0
:1002BC00012BA9D1D8F80030002BA5D100F06EFC91
:1002CC002B499FE7244A01211378308883F00103DE
:1002DC00137000F02CFE019B012B95D1D8F8003047
:1002EC00002B91D100F05AFC22498BE700F056FC10
:1002FC00214900F03EFB3088002100F018FE0D4A29
:10030C000021108800F013FE0B4B0021188800F020
:10031C000EFE0021BBF8000000F009FE74E700BFE0
:10032C008C0000200C0000200000002008000020A1
:10033C0004000020100000201800002014000020F1
:10034C00940000209C0000209800002089000020D0
:10035C00AC120A089000002088000020DF120A0866
:10036C008B00002009130A083D130A088A0000209C
:10037C0068130A0899130A08C1130A0808B5024B36
:10038C001B685B6C019308BDD001060808B5024BD5
:10039C001B689B6C019308BDD001060808B5024B85
:1003AC001B685B68019308BD9C01060808B5024BED
:1003BC001B685B69019308BD9C01060808B5024BDC
:1003CC001B689B68019308BDB001060808B5024B79
:1003DC001B68DB68019308BDB001060808B5024B29
:1003EC001B681B69019308BDB001060808B5024BD8
:1003FC001B685B69019308BDB001060808B5024B88
:10040C001B681B6E019308BDAC01060808B5024BB6
:10041C001B685B6E019308BDAC01060808B5024B66
:10042C001B689B6E019308BDAC01060808B5024B16
:10043C001B68DB6E019308BDAC01060808B5024BC6
:10044C001B681B6F019308BDAC01060808B5024B75
:10045C001B685B6F019308BDAC01060808B5034B24
:10046C001B68D3F88030019308BD0000AC0106086E
:10047C0008B5024B1B68DB69019308BDB401060883
:10048C0008B5024B1B681B6A019308BDB401060832
:10049C0008B5024B1B685B6A019308BDC4010608D2
:1004AC0008B5024B1B689B6A019308BDC401060882
:1004BC0008B5024B1B68DB6A019308BDC401060832
:1004CC0008B5024B1B681B6B019308BDC4010608E1
:1004DC0008B5024B1B685B6B019308BDC401060891
:1004EC0008B5024B1B689B6B019308BDC401060841
:1004FC0008B5024B1B681B6C019308BDC4010608B0
:10050C0008B5024B1B681B6E019308BDC40106089D
:10051C0008B5024B1B681B68019308BDD80106087F
:10052C0008B5024B1B685B68019308BDD80106082F
:10053C0008B5024B1B681B69019308BDD80106085E
:10054C0008B5024B1B685B69019308BDD80106080E
:10055C0008B5024B1B689B69019308BDD8010608BE
:10056C0008B5024B1B68DB69019308BDD80106086E
:10057C0008B5024B1B681B6A019308BDD80106081D
:10058C0008B5024B1B689B6C019308BDC0010608A3
:10059C0008B5024B1B685B68019308BDA4010608F3
:1005AC0008B5034B1B68D3F89030019308BD0000CD
:1005BC00A401060808B5034B1B68D3F89C300193C3
:1005CC0008BD0000A401060808B5024B1B68DB6BD4
:1005DC00019308BDCC01060808B5024B1B685B688B
:1005EC00019308BDC801060808B5024B1B689B683F
:1005FC00019308BDC801060808B5024B1B68DB68EF
:10060C00019308BDC801060808B5024B1B681B699D
:10061C00019308BDC801060808B5024B1B685B694D
:10062C00019308BDC801060808B5024B1B689B69FD
:10063C00019308BDC801060808B5024B1B68DB69AD
:10064C00019308BDC801060808B5024B1B681B6A5C
:10065C00019308BDC801060808B5024B1B681B6B4B
:10066C00019308BDC801060808B5024B1B685B6BFB
:10067C00019308BDC801060808B5024B1B681B6C2A
:10068C00019308BDC801060808B5024B1B685B6CDA
:10069C00019308BDC801060808B5024B1B681B680E
:1006AC00019308BDA001060808B5024B1B685B68E6
:1006BC00019308BDA001060808B5024B1B681B6C12
:1006CC00019308BDA001060808B5024B1B685B6CC2
:1006DC00019308BDA00106087047F8B506461546FB
:1006EC000C468F18BC4206D0336830469B6814F811
:1006FC00011B9847F6E72846F8BD0022007CFFF75F
:10070C007DBE0021007CFFF781BE0021007CFFF73D
:10071C0085BE0021007CFFF789BE0021007CFFF71D
:10072C008DBE10B504461421FFF7B1FC204610BD58
:10073C0010B54FF47A73044608460021C4E901133E
:10074C00034B114623602074FFF788FE204610BD32
:10075C00E0130A087047F8B50E46002400F10807AC
:10076C00051D17F8011D0A22304600F00CF9AF42A6
:10077C00044401D12046F8BD002CF2D02E21304685
:10078C0000F0E8F80444ECE710B504461821FFF734
:10079C007EFC204610BD000010B50446044B11220F
:1007AC00002140F8043B00F08DFC204610BD00BF3A
:1007BC0008140A080346074A10B543F8042B01F144
:1007CC00100251F8044B914243F8044BF9D10A78CA
:1007DC001A7010BD08140A08024AC0E9002104224C
:1007EC000275704708140A0810B59DF8084044EAD1
:1007FC000324042344EA024444EA0164446003757C
:10080C0010BD000013B5044C04609DF8104000941A
:10081C00FFF7EAFF02B010BD08140A08014B024AA8
:10082C001A607047A000002014140A0800234068C6
:10083C001A46FFF7D1BE002202214068FFF7DCBE4A
:10084C00002240681146FFF7CFBE002240681146D7
:10085C00FFF7DABE002340681A461946FFF7DCBEE4
:10086C00002340681A461946FFF7DEBE0021406897
:10087C00FFF702BF00214068FFF706BF0022406867
:10088C0081F00101FFF7D8BE00224068FFF7E4BEFB
:10089C00002240681146FFF7E7BE0022406811466F
:1008AC00FFF7D2BE70B515468EB0044608A8FFF708
:1008BC0073FF1122002103A800F004FC0026284637
:1008CC0000F074FC0A4B009681B25B68284603AAC0
:1008DC00FFF756FE30B131462046FFF77DFF20462C
:1008EC000EB070BD204603A9FFF764FFF7E700BF09
:1008FC0004040020024B034A1A6000225A6070471D
:10090C00A400002020140A08F8B506460D46002461
:10091C008F18BD420CD0336830469B6815F8011B0C
:10092C009847031E01DB1C44F3E7002C08BF1C4650
:10093C002046F8BD70B505460C46084649B100F096
:10094C0035FC2B68024621462846BDE87040DB6822
:10095C00184770BD03689B68184738B50D210546CC
:10096C00FFF7F8FF0A2104462846FFF7F3FF20445F
:10097C0038BD38B50546FFF7DDFF04462846FFF7BE
:10098C00ECFF204438BD0023012A98BF0A2230B561
:10099C008BB00C468DF8243009A92546B4FBF2F433
:1009AC0004FB1253DBB2092B94BF30333733DBB269
:1009BC00AA4201F8013DF0D9FFF7BCFF0BB030BDE6
:1009CC000022014B9A607047AC00002070B50026E5
:1009DC0004460D4640F8086FFFF7D0FC28462570FA
:1009EC00FFF746FD2046666070BD00000222002025
:1009FC00044B1A60044B054AC3E900009A60FFF7E8
:100A0C00C7BD00BFC8000020BC0000200000FFFFD5
:100A1C00024B1A68024B1A60704700BF1C00002082
:100A2C00CC00002070474174704708B5007CFFF77C
:100A3C005FFD20EAE07008BD08B5007CFFF730FDD3
:100A4C0020EAE07008BD08B5007CFFF739FD40EAEC
:100A5C00E07008BD08B5007CFFF72AFD40EAE070A5
:100A6C0008BD007CFFF734BD70B5467C04460D46CE
:100A7C002EB12946207CBDE87040FFF709BD007CF3
:100A8C00FFF736FD0028F4DC304670BD10B5044687
:100A9C001421FFF7FCFA204610BD000010B54FF4EE
:100AAC007A730446084611460022C4E90123044B1C
:100ABC002074236001236374FFF722FD204610BDD0
:100ACC0078140A08417470477047704708B50021C4
:100ADC00007CFFF73DFD40EAE07008BD08B5012140
:100AEC00007CFFF735FD40EAE07008BD08B5007CDE
:100AFC00FFF726FD20EAE07008BD08B5007CFFF783
:100B0C0017FD20EAE07008BD38B50446007C0D46A0
:100B1C00FFF716FD002801DC607C28B12946207CFB
:100B2C00FFF71EFD20EAE07038BD007CFFF720BD0A
:100B3C0010B504461421FFF7AAFA204610BD7047E1
:100B4C0010B54FF47A73044608460021C4E901132A
:100B5C00044B20742360012311466374FFF7D8FC07
:100B6C00204610BDA8140A080022007CFFF7D8BC50
:100B7C0010B504461422002100F0A4FA054B2046BF
:100B8C006360054BE36040F20113238181232382D0
:100B9C0010BD00BF000100200102002030B50E4D39
:100BAC0087B001A8FFF7E4FF2978BFF35B8F11F042
:100BBC0001040ED12846FFF76CFA50B1214601AA68
:100BCC000648FFF7BDFF2846FFF768FA044800F017
:100BDC0065FA024807B030BDD0000020D8000020D4
:100BEC00D50A0A0810B504461422002100F06AFA4E
:100BFC00054B20466360054BE36040F201132381F3
:100C0C008123238210BD00BF8202002083030020B9
:100C1C0010B50E4C86B001A8FFF7E4FF2378BFF3A4
:100C2C005B8FDB070ED42046FFF733FA50B101215E
:100C3C0001AA0748FFF784FF2046FFF72FFA054863
:100C4C0000F02CFA024806B010BD00BFD400002002
:100C5C00EC0000204B0B0A08002240681146FFF7FD
:100C6C00D3BCF0B5154689B011220E4604460021BE
:100C7C0003A800F027FA284600F098FA002781B262
:100C8C0073682846009703AAFFF77AFC30B13946FF
:100C9C002046FFF7A1FD204609B0F0BD204603A970
:100CAC00FFF788FDF7E7002240681146FFF7CCBC40
:100CBC00002240681146FFF7D7BC00224068FFF7BE
:100CCC00CBBC0022406881F00101FFF7B5BC0023CA
:100CDC0040681A461946FFF7A7BC002340681A461D
:100CEC001946FFF799BC002240681146FFF77CBCFF
:100CFC00002202214068FFF77FBC002340681A469F
:100D0C00FFF76ABC0422024B5A60024A1A60704711
:100D1C0004040020D8140A08014B1860704700BF67
:100D2C002000002008B5134B43B1FFF737FF0368D1
:100D3C001B699847002801DDAFF300800E4B43B1CF
:100D4C0000F086F903681B699847002801DDAFF3B2
:100D5C0000800A4B0BB1AFF30080094B43B1FFF796
:100D6C0057FF03681B699847002801DDAFF300802B
:100D7C0008BD00BF000000000000000000000000E3
:100D8C000000000008B5FFF7CDFFFFF70FFB014B8C
:100D9C00186008BD240400200548064A08B5121A3C
:100DAC00054900F081F9054B054A1A6008BD00BFE2
:100DBC000040024004400240A0150A0800400240D6
:100DCC001E1C279A002307B51A466FF07701009373
:100DDC00FFF7F0FB03B05DF804FB000007B5438898
:100DEC000A2B08D0502B0BD1094B1B684BB103B00D
:100DFC005DF804EB1847FFF7E5FF03B05DF804FB63
:100E0C0000231A466FF077010093FFF7D3FBF4E74A
:100E1C0010040020002110B51148FFF755FC114BB0
:100E2C001A68114B9A420CBF012200220F4B1A7008
:100E3C0001D0FFF7B1FFFFF7B1FA044600F04AF911
:100E4C000B4B13B12046AFF3008000210848FFF78D
:100E5C00BBFBBDE8104000210648FFF7A1BB00BF5B
:100E6C00250D0A08004002401E1C279A0C04002085
:100E7C0000000000E90D0A08024B986808B1FFF762
:100E8C0085BA704718040020172870B5044601D99C
:100E9C00002070BDA0F10D03022B0BD9012824D822
:100EAC0000F088F80021007CFFF7D0FA80F00100F8
:100EBC00C0B2EEE7124E3178BFF35B8F11F0010533
:100ECC000DD13046FFF7E5F848B129460D48FFF73C
:100EDC007DFD3046FFF7E2F80B4800F0DFF8094BD8
:100EEC001878FFF7CDFA0028D2D1123C012C05D886
:100EFC0000F0AEF8007CFFF7F3FAD7E70120C8E763
:100F0C001404002018040020850E0A08172838B590
:100F1C0004460D460AD8FF2908D0FFF7B5FF28B1C3
:100F2C0029462046BDE83840FFF748BA38BD38B5E9
:100F3C0004460D46FFF74AFAFF2810D0062804D8BD
:100F4C004D2323FA00F0C30709D42046FFF79CFF7A
:100F5C0028B129462046BDE83840FFF73FBA38BDD6
:100F6C0010B50446FFF732FA031FDBB2012B08D988
:100F7C002046FFF789FF20B12046BDE81040FFF75F
:100F8C0035BA002010BD704770B514232025084ECB
:100F9C0004460360314685600561284600F07CF804
:100FAC0031466060284600F077F8E060204670BD5E
:100FBC000C150A0830B50E4D87B02978BFF35B8F3E
:100FCC0011F0010411D12846FFF763F868B101A8AC
:100FDC00FFF7DAFF214601AA0648FFF7A9FB2846CE
:100FEC00FFF75CF8044800F059F8024807B030BD30
:100FFC00280400202C040020930F0A08002307B5B6
:10100C001A46194600930348FFF7FCFB03B05DF842
:10101C0004FB00BF400400207047000070B514258D
:10102C0004462A46002100F04DF825808025074E05
:10103C00284631462581258200F02EF83146606025
:10104C00284600F029F8E060204670BD0C150A080F
:10105C0030B50E4D87B02978BFF35B8F11F00104CA
:10106C0011D12846FFF715F868B101A8FFF7D6FF94
:10107C00214601AA0648FFF711FD2846FFF70EF896
:10108C00044800F00BF8024807B030BD58040020AB
:10109C005C04002025100A08FEF7F7BF0023014668
:1010AC001A46184600F08AB80A44914200F1FF3300
:1010BC0000D1704710B511F8014B914203F8014F64
:1010CC00F9D110BD03460244934200D1704703F896
:1010DC00011BF9E738B5104B04461D68AB6BB3B96F
:1010EC001820FFF7D9FA0246A86320B942210B4B0E
:1010FC000B48FFF7E1FA0B490B4BC0E900130B4B04
:10110C00002183600B2383810120C2E904010022AA
:10111C00AB6B1C615A6138BD200000200D150A080C
:10112C0024150A080E33CDAB34126DE6ECDE050047
:10113C00164B10B51C68A36BB3B91820FFF7ACFAAB
:10114C000246A06320B94E21114B1248FFF7B4FAA6
:10115C001149124BC0E90013114B002183600B2382
:10116C0083810120C2E90401A46B0E4A20696369E2
:10117C0042430D4901FB0322A0FB0101431C42EB3E
:10118C000100C4E9043020F0004010BD2000002014
:10119C000D150A0824150A080E33CDAB34126DE672
:1011AC00ECDE05002DF451582D7F954C034613F8B9
:1011BC00012B002AFBD1181A013870472DE9F8438E
:1011CC00DFF8AC800646D8F800001F460D46914665
:1011DC0000F058F8274B1C6834B9274C1C60274B7F
:1011EC0013B11B68C4F8883063681F2B07DDD8F86F
:1011FC00000000F049F84FF0FF30BDE8F8835EB313
:10120C00D4F8880088B91E4B23B9D8F8000000F038
:10121C003AF8F0E74FF48470FFF73EFA0028F4D068
:10122C000023C0E94033C4F8880001226368022E11
:10123C0040F8239002FA03F200EB8301D0F800315E
:10124C0043EA0203C0F80031C1F8807002BFD0F845
:10125C0004311343C0F804316368D8F800005A1CF9
:10126C000233626044F8235000F00EF80020C4E70B
:10127C0084000020FC04002070040020000000000A
:10128C00A5060A0870477047704700001D000A0841
:10129C005D000A0885000A0889000A0800000000A1
:1012AC0053696D6F6E20646964206E6F7420736176
:1012BC00792022507265737320677265656E2E22D9
:1012CC00204E6F20706F696E747320617761726449
:1012DC0065640053696D6F6E2073616964202270C0
:1012EC007265737320677265656E2E2220312070D3
:1012FC006F696E7420617761726465640053696D07
:10130C006F6E20646964206E6F7420736179202283
:10131C0050726573732079656C6C6F772E22204E3A
:10132C006F20706F696E747320617761726465648D
:10133C000053696D6F6E2073616964202270726551
:10134C0073732079656C6C6F772E22203120706F4F
:10135C00696E7420617761726465640053696D6FA6
:10136C006E20646964206E6F742073617920225042
:10137C0072657373207265642E22204E6F20706F1D
:10138C00696E747320617761726465640053696D72
:10139C006F6E2073616964202270726573732072A2
:1013AC0065642E22203120706F696E742061776124
:1013BC007264656400536F6D657468696E6720773D
:1013CC00656E742077726F6E67000000000000007D
:1013DC0000000000E5060A082F070A0807070A089C
:1013EC00E7060A080F070A0817070A081F070A0862
:1013FC0027070A08000000000000000063070A0825
:10140C0061070A0895070A08617070000000000067
:10141C000000000039080A0843080A084D080A08A9
:10142C0057080A0861080A086D080A0879080A08AA
:10143C0081080A0889080A0895080A089D080A08FC
:10144C00A7080A08B1080A0825592D256D2D256411
:10145C005425483A254D3A2553257A006173637417
:10146C00696D65000000000000000000310A0A08E8
:10147C00990A0A08750A0A0815090A08450A0A0889
:10148C00610A0A08530A0A086F0A0A08330A0A088A
:10149C00370A0A080000000000000000D70A0A08FA
:1014AC003D0B0A08150B0A0815090A08070B0A0850
:1014BC00D90A0A08E90A0A08370B0A08F90A0A08BD
:1014CC00D10A0A080000000000000000070D0A08FD
:1014DC00FD0C0A08F30C0A08650C0A08E70C0A084C
:1014EC00DB0C0A0879080A0881080A08CF0C0A08DC
:1014FC00C70C0A08BD0C0A08B30C0A086F0C0A08C2
:10150C00005245454E54206D616C6C6F63207375B1
:10151C0063636565646564002F746D702F6A656E16
:10152C006B696E732D4743432D31302D7069706597
:10153C006C696E652D34385F323032303131323473
:10154C005F313630363138303633392F7372632F82
:10155C006E65776C69622F6E65776C69622F6C694A
:10156C0062632F7374646C69622F72616E642E6394
:10157C000000000029080A0801090A08CD090A0818
:10158C00F9090A081D0A0A08110D0A0809100A08A7
:04159C00000000004B
:0415A0000000000047
:1015A400020000000600000004000000010000002A
:1015B400030000000A0000000500000068140A0887
:1015C40024000020000000000000000000000000D3
:1015D4000000000000000000000000000000000007
:1015E40000000000000000000000000000000000F7
:1015F40000000000000000000000000000000000E7
:1016040000000000000000000000000000000000D6
:1016140000000000000000000000000000000000C6
:08162400000000000005002099
:10162C00FFFFFFFF00000102030405060708090A7B
:10163C000B0C0D0E0F101112131415161718191A76
:08164C001B1C1D1E1F202800BD
:04165400785634127E
:04000005080A001CC9
:00000001FF
