:02000002B0004C
:1040000000400B00185A0B00000006000C000502CF
:084010000401A50F00000000EF
:04401800E4550B0060
:10401C0009480A49884208B505D0094A824202D0AB
:10402C00121A01F0E9F90748074A0021121A01F0A7
:10403C00F1F9014808BD00BF10E6032068590B00D8
:10404C0098E6032098E60320EDE7032070B5074EB1
:10405C00074C01F09DF8A41BA4080025AC4200D12C
:10406C0070BD56F8043B98470135F7E718590B001B
:10407C0038590B0000F014B808B500F063F8BDE82F
:10408C00084001F03DB800F093BC00F099BC0078FA
:10409C00B0FA80F0400970470123037070470000AC
:1040AC0010B5204C0121208801F0E2F820881E4C2C
:1040BC00002101F0EEF82088012101F0D9F82088C8
:1040CC001A4C002101F0E5F82088012101F0D0F80C
:1040DC002088174C002101F0DCF82088012101F028
:1040EC00C7F82088002101F0D4F8124B032118885E
:1040FC0001F0BEF8104B0321188801F0B9F80F4BF2
:10410C000321188801F0B4F80D4B0321188801F035
:10411C00AFF800F06FFFBDE810404FF4165100F0FF
:10412C005DBF00BF1CE6032020E6032028E6032029
:10413C0024E603209CE6032010E6032018E6032067
:10414C0014E603202DE9F74F00F0A6FABD4BBE4F45
:10415C00BE4E8046188801F0B5F83B780546002B1A
:10416C0040F0B580BA4C2368434527D2B94B197837
:10417C0081F001011970B84B188801F08AF8B74B1F
:10418C00197881F001011970B54B188801F081F88C
:10419C00B44B197881F001011970B34B188801F0F8
:1041AC0078F8B24B197881F001011970B04B18886E
:1041BC0001F06FF8236803F57A732360012D6AD13F
:1041CC003468002C67D100F015FFAA49DFF88892FB
:1041DC00DFF88C8200F009FE3B78B9F800003560FE
:1041EC0083F001033B7021469F4FA14E01F051F823
:1041FC00B8F80000294601F04CF83888214601F047
:10420C0048F82146308801F044F84FF47A7000F0F9
:10421C00EFFBB9F80000214601F03BF8B8F80000BC
:10422C00214601F036F83888294601F032F821464B
:10423C00308801F02EF84FF47A7000F0D9FBB9F801
:10424C000000214601F025F8B8F80000214601F0E5
:10425C0020F83888214601F01CF82946308801F0F6
:10426C0018F84FF47A7000F0C3FBB9F8000021463F
:10427C0001F00FF8B8F80000294601F00AF8388868
:10428C00294601F006F83088294601F002F84FF46F
:10429C007A7000F0ADFB6B4B6C4D188801F012F886
:1042AC00012804460BD12B684BB900F0A3FE7249D0
:1042BC0000F09BFD644A137883F0010313704FF4F4
:1042CC007A7000F095FB2C6003B0BDE8F08FDFF83E
:1042DC00D0A1DFF8D091BAF80000DFF8CC81DFF87C
:1042EC0078B10027376000F0EDFF0646B9F8000002
:1042FC0000F0E8FF0546B8F8000000F0E3FF39468F
:10430C000446BBF8000000F0C4FF554A394610883B
:10431C0000F0BFFF544B3946188800F0BAFF544BDD
:10432C003946188800F0B5FF4FF4FA7000F060FBC6
:10433C0001F0A6F8009001F0A3F8032190FBF1F135
:10434C0001EB4101411A0129474B00F0AF800229D2
:10435C0000F00C81424A002940F05E811088012156
:10436C0000F097FF322000F043FB009BDA0739D4B2
:10437C0000F040FE414900F038FD40F6C41000F05A
:10438C0037FBBAF8000000F09DFF0646B9F80000B4
:10439C0000F098FF0546B8F8000000F093FF012EDE
:1043AC00044603D0012D01D0012817D100F022FEC4
:1043BC00334900F01AFD322000F01AFB00F01AFE0F
:1043CC00304900F012FD4FF47A7000F011FB2E4BC7
:1043DC001E602E4B1D602E4B1C605CE700F00AFE2D
:1043EC002C49E6E700F006FE2B4900F0FEFC01210B
:1043FC00BBF8000000F04DFF40F6C41000F0F8FAD6
:10440C00BAF8000000F05EFF0646B9F8000000F0B4
:10441C0059FF0746B8F8000000F054FF012E04467F
:10442C0009D157EA000506D100F0E4FD1B4900F064
:10443C00DCFC2C46BFE700F0DDFD114900F0D5FC9B
:10444C003D46B8E79CE60320B0E60320A0E6032037
:10445C00B4E6032098E603201CE6032099E603202B
:10446C0020E603209BE6032028E603209AE603209F
:10447C0024E60320F8550B0006570B0024560B00BE
:10448C003B560B0023560B00A4E60320ACE603209E
:10449C00A8E603204E560B0067560B0089560B00FE
:1044AC0010E6032018E6032014E603201888019177
:1044BC0000F0EFFE322000F09BFA009B019913F004
:1044CC00010F23D100F096FD604900F08EFC40F600
:1044DC00C41000F08DFABAF8000000F0F3FE0646A6
:1044EC00B9F8000000F0EEFE0546B8F8000000F048
:1044FC00E9FE012D044603D0012E01D001285ED126
:10450C0000F078FD524900F070FC26E0BBF800008A
:10451C0000F0BFFE00F06EFD4E4900F066FC40F668
:10452C00C41000F065FABAF8000000F0CBFE0746A4
:10453C00B9F8000000F0C6FE0546B8F8000000F01F
:10454C00C1FE012D04460AD157EA000607D100F03E
:10455C0051FD414900F049FC344664202CE700F041
:10456C0049FD3B4900F041FC3E46F6E73B4B01213F
:10457C00188800F08EFE322000F03AFA009BDB0720
:10458C0021D400F037FD364900F02FFC40F6C41062
:10459C0000F02EFABAF8000000F094FE0646B9F8C6
:1045AC00000000F08FFE0546B8F8000000F08AFE0F
:1045BC0001280446A4D0012EA2D0012D9FE700F0C3
:1045CC0019FD28499FE70121BBF8000000F061FEAE
:1045DC0000F010FD244900F008FC40F6C41000F077
:1045EC0007FABAF8000000F06DFE0746B9F80000B3
:1045FC0000F068FE0546B8F8000000F063FE0128E4
:10460C000446ACD157EA0506A9D100F0F3FC1249D7
:10461C0000F0EBFB3546A0E700F0ECFC134900F092
:10462C00E4FBBBF80000394600F033FE104A394673
:10463C00108800F02EFE0F4B3946188800F029FE2A
:10464C00064B3946188800F024FEB7E6A5560B0039
:10465C003B560B009A560B0089560B0024E60320A0
:10466C00BD560B004E560B00D2560B00F1560B00EC
:10467C0020E6032028E6032008B5024B1B685B6C80
:10468C00019308BD4802030008B5024B1B685B6828
:10469C00019308BD1802030008B5024B1B685B6947
:1046AC00019308BD1802030008B5024B1B689B68F8
:1046BC00019308BD2C02030008B5024B1B68DB6894
:1046CC00019308BD2C02030008B5024B1B681B6943
:1046DC00019308BD2C02030008B5024B1B685B69F3
:1046EC00019308BD2C02030008B5024B1B681B6A22
:1046FC00019308BD2802030008B5024B1B685B6AD6
:10470C00019308BD2802030008B5024B1B689B6A85
:10471C00019308BD2802030008B5024B1B68DB6A35
:10472C00019308BD2802030008B5024B1B681B6BE4
:10473C00019308BD2802030008B5024B1B685B6B94
:10474C00019308BD2802030008B5024B1B681B6CC3
:10475C00019308BD2802030008B5024B1B685B6976
:10476C00019308BD6402030008B5024B1B689B68EB
:10477C00019308BD6802030008B5024B1B68DB6897
:10478C00019308BD6802030008B5024B1B68DB6986
:10479C00019308BD3002030008B5024B1B681B6A6D
:1047AC00019308BD3002030008B5024B1B68DB689F
:1047BC00019308BD3C02030008B5024B1B681B6942
:1047CC00019308BD3C02030008B5024B1B685B69F2
:1047DC00019308BD3C02030008B5024B1B689B69A2
:1047EC00019308BD3C02030008B5024B1B68DB6952
:1047FC00019308BD3C02030008B5024B1B681B6A01
:10480C00019308BD3C02030008B5024B1B689B6A70
:10481C00019308BD3C02030008B5024B1B681B6CDE
:10482C00019308BD3C02030008B5024B1B681B68D2
:10483C00019308BD4C02030008B5024B1B685B6872
:10484C00019308BD4C02030008B5024B1B681B69A1
:10485C00019308BD4C02030008B5024B1B685B6951
:10486C00019308BD4C02030008B5024B1B689B6901
:10487C00019308BD4C02030008B5024B1B68DB69B1
:10488C00019308BD4C02030008B5024B1B681B6A60
:10489C00019308BD4C02030008B5024B1B685B6812
:1048AC00019308BD2002030008B5024B1B685B692D
:1048BC00019308BD2002030008B5034B1B68D3F815
:1048CC008830019308BD00002002030008B5034B9B
:1048DC001B68D3F89430019308BD0000200203003C
:1048EC0008B5024B1B68DB6B019308BD4402030047
:1048FC0008B5024B1B685B68019308BD40020300BE
:10490C0008B5024B1B689B68019308BD400203006D
:10491C0008B5024B1B68DB68019308BD400203001D
:10492C0008B5024B1B681B69019308BD40020300CC
:10493C0008B5024B1B685B69019308BD400203007C
:10494C0008B5024B1B689B69019308BD400203002C
:10495C0008B5024B1B68DB69019308BD40020300DC
:10496C0008B5024B1B681B6A019308BD400203008B
:10497C0008B5024B1B681B6B019308BD400203007A
:10498C0008B5024B1B685B6B019308BD400203002A
:10499C0008B5024B1B681B6C019308BD4002030059
:1049AC0008B5024B1B685B6C019308BD4002030009
:1049BC0008B5024B1B681B68019308BD1C02030061
:1049CC0008B5024B1B685B68019308BD1C02030011
:1049DC0008B5024B1B681B6C019308BD1C0203003D
:1049EC0008B5024B1B685B6C019308BD1C020300ED
:1049FC000021FFF759BF0000024800230360FFF7B6
:104A0C003BBE00BFB8E60320002240681146FFF70A
:104A1C00A7BF002240681146FFF7B2BF40680022D2
:104A2C00FFF7A6BF4068002281F00101FFF790BF9D
:104A3C00002340681A461946FFF782BF00234068DE
:104A4C001A461946FFF774BF002240681146FFF75B
:104A5C0067BF002240681146FFF752BF4068002232
:104A6C000221FFF755BF002340681A46FFF740BFED
:104A7C00024B03225A60024A1A607047BCE60320BC
:104A8C003C570B007047F8B5064615460C468F1878
:104A9C00BC4206D0336814F8011B9B68304698471B
:104AAC00F6E72846F8BD007C0022FFF71DBE007C0F
:104ABC000021FFF721BE007C0021FFF725BE007C02
:104ACC000021FFF729BE007C0021FFF72DBE10B599
:104ADC0014210446FFF7D9FA204610BD38B5044618
:104AEC0015464FF47A730022C4E90123094B217453
:104AFC00084623602946FFF727FEBF3008D16B69B3
:104B0C00DB0705D56868FFF75BFFE868FFF758FF20
:104B1C00204638BD78570B00704710B51821044655
:104B2C00FFF7B3FA204610BDF0B5037D062B8DB010
:104B3C000E4600F104074FF0000412D000F10805F6
:104B4C0015F8011D0A22304600F059F9AF42044411
:104B5C0019D0002CF4D02E21304600F037F9044443
:104B6C00EEE72F236A4639460A208DF80040FFF7FE
:104B7C00F3FD684600F0C2FC33680246DB68694608
:104B8C0030469847044620460DB0F0BD10B5054B95
:104B9C000446112240F8043B002100F03BFC204667
:104BAC0010BD00BFA0570B000346074A10B543F8D1
:104BBC00042B01F1100251F8044B43F8044B9142C1
:104BCC00F9D10A781A7010BDA0570B0010B59DF8DA
:104BDC00084044EA032343EA024242EA0161042307
:104BEC004160037510BD000007B5064B0360CB7820
:104BFC0000938B784A780978FFF7E8FF03B05DF8EB
:104C0C0004FB00BFA0570B00014B024A1A6070470F
:104C1C00C4E60320AC570B00002340681A46FFF78C
:104C2C0067BE406800220221FFF772BE0022406876
:104C3C001146FFF765BE002240681146FFF770BEB3
:104C4C00002340681A461946FFF772BE00234068DD
:104C5C001A461946FFF774BE40680021FFF798BE4C
:104C6C0040680021FFF79CBE4068002281F00101E2
:104C7C00FFF76EBE40680022FFF77ABE0022406844
:104C8C001146FFF77DBE002240681146FFF768BE53
:104C9C002DE9F04395B014460D460746FFF776FF15
:104CAC0000211C220DA8009100F0B4FB40230C93B2
:104CBC0020466B460CAA0021FFF75EFD0446002837
:104CCC004BD1024601216868FFF72AFE022180467B
:104CDC0022466868FFF724FE009E81462146002E7E
:104CEC003BD0002939D17368022B03D00A2B11D089
:104CFC00F669F4E7B8F1000FFAD0716906A804312F
:104D0C0007ADFFF771FF0FCD3C1D0FC42B6823704F
:104D1C004146EDE7B9F1000FEAD07469102201A801
:104D2C0000F078FB06238DF8143001AD04F1080374
:104D3C001834186859682A4603C20833A34215462A
:104D4C00F7D101A906A807ADFFF72EFF0FCD3C1D2B
:104D5C000FC42B6823704946CAE70098FFF704FD7F
:104D6C00384615B0BDE8F083024B034A1A600022A6
:104D7C005A607047C8E60320B8570B00F8B50646D2
:104D8C000D468F180024BD420CD0336815F8011B5A
:104D9C009B6830469847031E01DB1C44F3E7002C4C
:104DAC0008BF1C462046F8BD13B50446084659B149
:104DBC00019100F0A3FB23680199DB6802462046B1
:104DCC0002B0BDE81040184702B010BD03689B68E4
:104DDC00184738B50D210546FFF7F8FF0A210446A0
:104DEC002846FFF7F3FF204438BD38B50546FFF7DA
:104DFC00DBFF04462846FFF7ECFF204438BD30B5F6
:104E0C008BB00023012A8DF8243098BF0A2209ACFC
:104E1C000D46B1FBF2F101FB125303F0FF03092B1A
:104E2C0094BF30333733DBB2AA4204F8013DEFD9DB
:104E3C002146FFF7B9FF0BB030BD0000014B00223B
:104E4C009A607047D0E6032010B5044608462170DE
:104E5C00FFF79AFC00236360204610BD054B02222D
:104E6C001A60054B054A9A600020C3E90000FFF761
:104E7C0013BD00BFECE60320E0E603200000FFFFBB
:104E8C00024B1A68024B1A60704700BF2CE60320D5
:104E9C00F0E6032070474174704708B5007CFFF7BB
:104EAC00B3FC20EAE07008BD08B5007CFFF784FC79
:104EBC0020EAE07008BD08B5007CFFF78DFC40EAE5
:104ECC00E07008BD08B5007CFFF77EFC40EAE0709E
:104EDC0008BD007CFFF788BC37B5457C04462DB176
:104EEC00207C03B0BDE83040FFF75EBC007C019134
:104EFC00FFF78AFC00280199F2DC284603B030BD8C
:104F0C0010B514210446FFF7C0F8204610BD000070
:104F1C0010B54FF47A730446084611460022C4E9D2
:104F2C000123044B2360012320746374FFF774FC8A
:104F3C00204610BD10580B004174704770477047E5
:104F4C0008B50021007CFFF78FFC40EAE07008BD3B
:104F5C0008B50121007CFFF787FC40EAE07008BD32
:104F6C0008B5007CFFF778FC20EAE07008BD08B5B6
:104F7C00007CFFF769FC20EAE07008BD13B504461D
:104F8C00007C0191FFF768FC0028019901DC607C32
:104F9C0020B1207CFFF770FC20EAE07002B010BD5D
:104FAC00007CFFF771BC10B514210446FFF76DF8B7
:104FBC00204610BD10B54FF47A7304460846002104
:104FCC00C4E90113044B236001232074637411465C
:104FDC00FFF72AFC204610BD40580B00007C002235
:104FEC00FFF72ABC10B514220446002100F012FA77
:104FFC00204610BD10B50F4C88B003A8FFF7F2FF88
:10500C002178BFF35B8F11F001010FD12046019184
:10501C00FFF73DF8019948B103AA0748FFF7CAFF0B
:10502C002046FFF739F8054800F0E0F9024808B0CF
:10503C0010BD00BFF4E60320F8E60320494F0B0037
:10504C00002240681146FFF76BBC002240681146F5
:10505C00FFF786BC002240681146FFF791BC406800
:10506C000022FFF785BC4068002281F00101FFF7A8
:10507C006FBC002340681A461946FFF761BC002339
:10508C0040681A461946FFF753BC00224068114687
:10509C00FFF736BC406800220221FFF739BC002321
:1050AC0040681A46FFF724BC024B04225A60024A9D
:1050BC001A6070470CE7032070580B00014B186006
:1050CC00704700BF30E6032008B50B4B43B1FFF728
:1050DC0091FF03681B699847002801DDAFF300803E
:1050EC00064B43B100F05CF903681B699847002834
:1050FC0001DDAFF3008008BD0000000000000000DF
:10510C0008B5FFF7E1FFFFF7C7FA014B186008BDC0
:10511C0028E703200548064A064908B5121A00F08C
:10512C006BF9054B054A1A6008BD00BF00F403205B
:10513C0004F4032064590B0000F403201E1C279A6E
:10514C0007B5002300931A466FF07701FFF7BEFBFB
:10515C0003B05DF804FB000007B543880A2B08D0A8
:10516C00502B0BD1094B1B684BB103B05DF804EB12
:10517C001847FFF7E5FF03B05DF804FB002300932D
:10518C001A466FF07701FFF7A1FBF4E718E703204D
:10519C0010B512480021FFF723FC114B1A68114B74
:1051AC009A42114B0CBF012200221A7001D0FFF75A
:1051BC00B1FFFFF769FA044600F034F90B4B13B159
:1051CC002046AFF3008000210848FFF789FBBDE8BB
:1051DC00104007480021FFF76FBB00BFC9500B0000
:1051EC0000F403201E1C279A14E703200000000083
:1051FC0065510B00232813B502D9002002B010BD55
:10520C00A0F10B03022B1AD8174C2178BFF35B8F3C
:10521C0011F001010BD120460191FEF738FF0199E5
:10522C0028B11248FFF710FE2046FEF735FF0F4B52
:10523C001878FFF7B1FA0028DFD10120DEE701284A
:10524C0009D800F06DF80021007CFFF775FA80F0AA
:10525C000100C0B2D2E709380128EED800F0A0F85E
:10526C00007CFFF7C9FAF2E71CE7032020E70320D4
:10527C00232838B504460D460AD8FF2908D0FFF775
:10528C00B9FF28B129462046BDE83840FFF70CBAD3
:10529C0038BD38B504460D46FFF70EFAFF2810D07E
:1052AC00062804D84D2323FA00F0C30709D420465E
:1052BC00FFF7A0FF28B129462046BDE83840FFF78C
:1052CC0003BA38BD10B50446FFF7F6F9031FDBB27D
:1052DC00012B08D92046FFF78DFF20B12046BDE8F1
:1052EC001040FFF7F9B9002010BD704738B50A4BD4
:1052FC0003600123044643610849202000F074F840
:10530C00202560600549A560284600F06DF8C4E9C9
:10531C000305204638BD00BF18000100A4580B003F
:10532C0030B50E4D2978BFF35B8F11F0010487B0B7
:10533C0011D12846FEF7ABFE68B16846FFF7D6FFE1
:10534C006A4621460648FFF7C9FB2846FEF7A4FE2D
:10535C00044800F04BF8024807B030BD2CE703209E
:10536C0030E70320F7520B007047000038B50446B5
:10537C0014252A46002100F04DF8258040250749C8
:10538C0025812846258200F02FF8044960602846C4
:10539C0000F02AF8E060204638BD00BFA4580B008E
:1053AC0030B50E4D2978BFF35B8F11F0010487B037
:1053BC0011D12846FEF76BFE68B101A8FFF7D6FFA6
:1053CC0001AA21460648FFF7A3FD2846FEF764FE16
:1053DC00044800F00BF8024807B030BD44E7032046
:1053EC0048E7032075530B00FEF74DBE0023014622
:1053FC001A46184600F08AB80A44914200F1FF336D
:10540C0000D1704710B511F8014B03F8014F9142D0
:10541C00F9D110BD02440346934200D1704703F802
:10542C00011BF9E738B5104B1D68AB6B0446B3B9DB
:10543C001820FFF7BDFA0246A86320B90B4B0C48A5
:10544C004221FFF7C5FA0B490B4BC0E900130B4B7C
:10545C0083600B23838100210120C2E90401AB6B23
:10546C0000221C615A6138BD30E60320A5580B00A0
:10547C00BC580B000E33CDAB34126DE6ECDE0500E0
:10548C00164B10B51C68A36BB3B91820FFF790FA34
:10549C00A06328B90246124B12484E21FFF798FA26
:1054AC00114A124BC0E90023114B83600B238381FB
:1054BC0001220023C0E90423A46B0E4A206963690E
:1054CC000D49424301FB0322A0FB0101431C42EBAB
:1054DC000100C4E9043020F0004010BD30E6032088
:1054EC00A5580B00BC580B000E33CDAB34126DE637
:1054FC00ECDE05002DF451582D7F954C034613F826
:10550C00012B002AFBD1181A013870472DE9F843FA
:10551C00DFF8B8800646D8F800001F460D469146C5
:10552C0000F056F8254B1C6834B9254C1C60254BF3
:10553C0013B11B68C4F8883063681F2B07DDD8F8DB
:10554C00000000F047F84FF0FF30BDE8F8834EB391
:10555C00D4F8880088B91C4B23B9D8F8000000F0A7
:10556C0038F8F0E74FF48470FFF722FA0028F4D0F3
:10557C000023C0E94033C4F88800636840F82390E6
:10558C0001229A4000EB8301D0F800311343C0F89C
:10559C000031022EC1F8807002BFD0F804311343E1
:1055AC00C0F804316368D8F800005A1C02336260FA
:1055BC0044F8235000F00EF80020C6E7E8E703207B
:1055CC005CE7032000000000BD490B0094E60320BB
:1055DC0070477047704700001D400B0059400B008E
:1055EC0081400B0085400B0000000000426C75658B
:1055FC0020627574746F6E207072657373206465AD
:10560C007465637465642E205374617274207468BD
:10561C00652067616D652100486F6C642074686556
:10562C0020677265656E20627574746F6E2E002033
:10563C004E6F20706F696E74732061776172646550
:10564C00640020526573747261696E7420706F69A6
:10565C006E7420617761726465640053696D6F6E5E
:10566C00207361797320686F6C642074686520679F
:10567C007265656E20627574746F6E2E0020312019
:10568C00706F696E74206177617264656400536930
:10569C006D6F6E207361797320686F6C6420746811
:1056AC00652079656C6C6F7720627574746F6E2EE3
:1056BC000050726573732074686520726564206293
:1056CC007574746F6E0053696D6F6E2073617973AE
:1056DC0020686F6C64207468652072656420627544
:1056EC0074746F6E00536F6D657468696E672077A4
:1056FC00656E742077726F6E6700426C7565206200
:10570C007574746F6E207072657373206465746544
:10571C00637465642E20456E7465722069646C65D3
:10572C00206D6F64650000000000000000000000A8
:10573C00734A0B00694A0B005F4A0B00554A0B0079
:10574C00494A0B003D4A0B00654C0B006D4C0B009D
:10575C00314A0B00294A0B001F4A0B00154A0B005B
:10576C009D4C0B000000000000000000914A0B0053
:10577C00DB4A0B00B34A0B00934A0B00BB4A0B00ED
:10578C00C34A0B00CB4A0B00D34A0B0000000000AD
:10579C0000000000354B0B00254B0B00274B0B007A
:1057AC00617070000000000000000000254C0B0030
:1057BC002F4C0B00394C0B00434C0B004D4C0B0089
:1057CC00594C0B00654C0B006D4C0B00754C0B00D1
:1057DC00814C0B00894C0B00934C0B009D4C0B0027
:1057EC0025592D256D2D25645425483A254D3A25EE
:1057FC0053257A0061736374696D650000000000C5
:10580C0000000000A14E0B000D4F0B00E54E0B00ED
:10581C00894D0B00B54E0B00D14E0B00C34E0B0047
:10582C00DF4E0B00A34E0B00A74E0B000000000038
:10583C00000000004B4F0B00B34F0B00894F0B00C7
:10584C00894D0B007B4F0B004D4F0B005D4F0B0038
:10585C00AD4F0B006D4F0B00454F0B0000000000CF
:10586C0000000000AB500B00A1500B0097500B0038
:10587C004D500B008B500B007F500B00654C0B00F8
:10588C006D4C0B0073500B006B500B0061500B00F8
:10589C0057500B009D4C0B00005245454E54206D4B
:1058AC00616C6C6F6320737563636565646564001C
:1058BC002F746D702F6A656E6B696E732D47434341
:1058CC002D31302D706970656C696E652D34385FC3
:1058DC0032303230313132345F313630363138306B
:1058EC003633392F7372632F6E65776C69622F6E46
:1058FC0065776C69622F6C6962632F7374646C6971
:10590C00622F72616E642E6300000000054A0B006A
:10591C007D4A0B00154C0B00754D0B00494E0B00CE
:10592C00694E0B008D4E0B00B5500B0000000000B3
:04593C000000000067
:10594000040000001400000003000000474E550052
:10595000B6A65616936741EB2B2B4808C31B7E3B1C
:0459600028B4691EE0
:04596400000000003F
:105968000200000006000000040000000100000022
:1059780003000000130000000500000000580B00A1
:1059880034E60320000000000000000000000000D2
:1059980000000000000000000000000000000000FF
:1059A80000000000000000000000000000000000EF
:1059B80000000000000000000000000000000000DF
:1059C80000000000000000000000000000000000CF
:1059D80000000000000000000000000000000000BF
:0859E80000000000ECE70320C1
:1059F000FFFFFFFF00000102030405060708090A74
:105A00000B0C0D0E0F101112131415161718191A6E
:085A10001B1C1D1E1F202800B5
:045A18007856341276
:04000003B000401CED
:00000001FF
