:02000004080AE8
:1000000000000A0884190A0800000600060005011D
:080010000402E50C00000000F1
:04001800B0150A080D
:10001C0009480A4908B5884205D0094A824202D0EB
:10002C00121A01F0CDF90748074A0021121A01F003
:10003C00D5F9064808BD00BF00000020D4180A08F6
:10004C0088000020880000200905002009050020F8
:10005C0070B501F06BF80025054E064CA41BA408E6
:10006C00AC4200D170BD56F8043B98470135F7E718
:10007C00A8180A08C4180A0800F014B808B500F04B
:10008C0063F8BDE8084001F009B800F08DBC00F041
:10009C0093BC0078B0FA80F04009704701230370DC
:1000AC007047000010B5204C0121208801F0BAF8EF
:1000BC0020881E4C002101F0C6F82088012101F097
:1000CC00B1F820881A4C002101F0BDF820880121DC
:1000DC0001F0A8F82088174C002101F0B4F8208812
:1000EC00012101F09FF82088002101F0ACF8124B9F
:1000FC000321188801F096F8104B0321188801F0A1
:10010C0091F80F4B0321188801F08CF80D4B03214B
:10011C00188801F087F800F0CDFEBDE810404FF4D0
:10012C00165100F0ADBE00BF0C00002010000020E6
:10013C0018000020140000208C000020000000207B
:10014C0008000020040000202DE9F74F00F0AEFA63
:10015C00BD4B8046188801F08FF8BC4F05463B78A4
:10016C00BB4E002B40F0B580BA4C2368434527D2D8
:10017C00B94B197881F001011970B84B188801F04E
:10018C0062F8B74B197881F001011970B54B1888DA
:10019C0001F059F8B44B197881F001011970B34B87
:1001AC00188801F050F8B24B197881F001011970E0
:1001BC00B04B188801F047F8236803F57A73236075
:1001CC00012D6AD13468002C67D100F073FEAA4966
:1001DC0000F05BFD3B78DFF8849283F00103DFF8DD
:1001EC0084823B702146A14FB9F800003560A14EC6
:1001FC0001F029F82946B8F8000001F024F821464E
:10020C00388801F020F82146308801F01CF84FF4B2
:10021C007A7000F0E9FB2146B9F8000001F013F800
:10022C002146B8F8000001F00EF82946388801F094
:10023C000AF82146308801F006F84FF47A7000F085
:10024C00D3FB2146B9F8000000F0FDFF2146B8F8B9
:10025C00000000F0F8FF2146388800F0F4FF294632
:10026C00308800F0F0FF4FF47A7000F0BDFB2146AF
:10027C00B9F8000000F0E7FF2946B8F8000000F0DC
:10028C00E2FF2946388800F0DEFF3088294600F06E
:10029C00DAFF4FF47A7000F0A7FB6B4B6C4D1888AB
:1002AC0000F0EAFF012804460BD12B684BB900F093
:1002BC0001FE724900F0E9FC644A137883F00103F3
:1002CC0013704FF47A7000F08FFB2C6003B0BDE814
:1002DC00F08F0027DFF8A8A13760BAF8000000F013
:1002EC00CBFFDFF8A0910646B9F8000000F0C4FF80
:1002FC00DFF894810546B8F8000000F0BDFFDFF888
:10030C005CB139460446BBF8000000F09CFF554A2E
:10031C003946108800F097FF544B3946188800F086
:10032C0092FF544B3946188800F08DFF4FF4FA7049
:10033C0000F05AFB01F088F8009001F085F80321D9
:10034C0090FBF1F101EB4101411A0129474B00F0FF
:10035C00AF80022900F00C81424A002940F05E81F6
:10036C001088012100F06FFF322000F03DFB009B54
:10037C00DA0739D400F09EFD444900F086FC40F6C3
:10038C00C41000F031FBBAF8000000F075FF06460F
:10039C00B9F8000000F070FF0546B8F8000000F056
:1003AC006BFF012E044603D0012D01D0012817D17B
:1003BC0000F080FD364900F068FC322000F014FBA0
:1003CC0000F078FD334900F060FC4FF47A7000F0D7
:1003DC000BFB314B1E60314B1D60314B1C605CE7DD
:1003EC0000F068FD2F49E6E700F064FD2E4900F0AF
:1003FC004CFC0121BBF8000000F025FF40F6C410B6
:10040C0000F0F2FABAF8000000F036FF0646B9F830
:10041C00000000F031FF0746B8F8000000F02CFF98
:10042C00012E044609D157EA000506D100F042FD21
:10043C001E4900F02AFC2C46BFE700F03BFD144996
:10044C0000F023FC3D46B8E78C000020A000002003
:10045C0090000020A4000020880000200C00002048
:10046C0089000020100000208B00002018000020C4
:10047C008A00002014000020C4150A08D2160A08AD
:10048C00000000200800002004000020F0150A08DD
:10049C0007160A08EF150A08940000209C0000209B
:1004AC00980000201A160A0833160A0855160A086E
:1004BC001888019100F0C7FE322000F095FA009BDD
:1004CC00019913F0010F23D100F0F4FC604900F006
:1004DC00DCFB40F6C41000F087FABAF8000000F01C
:1004EC00CBFE0646B9F8000000F0C6FE0546B8F88B
:1004FC00000000F0C1FE012D044603D0012E01D0F6
:10050C0001285ED100F0D6FC524900F0BEFB26E07B
:10051C00BBF8000000F097FE00F0CCFC4E4900F058
:10052C00B4FB40F6C41000F05FFABAF8000000F01B
:10053C00A3FE0746B9F8000000F09EFE0546B8F889
:10054C00000000F099FE012D04460AD157EA00067E
:10055C0007D100F0AFFC414900F097FB3446642012
:10056C002CE700F0A7FC3B4900F08FFB3E46F6E77A
:10057C003B4B0121188800F066FE322000F034FA63
:10058C00009BDB0721D400F095FC364900F07DFB85
:10059C0040F6C41000F028FABAF8000000F06CFE27
:1005AC000646B9F8000000F067FE0546B8F80000F2
:1005BC0000F062FE01280446A4D0012EA2D0012D29
:1005CC009FE700F077FC28499FE70121BBF800006A
:1005DC0000F039FE00F06EFC244900F056FB40F6AA
:1005EC00C41000F001FABAF8000000F045FE07460E
:1005FC00B9F8000000F040FE0546B8F8000000F025
:10060C003BFE01280446ACD157EA0506A9D100F0FF
:10061C0051FC124900F039FB3546A0E700F04AFCCA
:10062C00134900F032FB3946BBF8000000F00BFE1A
:10063C00104A3946108800F006FE0F4B39461888D0
:10064C0000F001FE064B3946188800F0FCFDB7E6B9
:10065C0071160A0807160A0866160A0855160A08BB
:10066C001400002089160A081A160A089E160A0891
:10067C00BD160A08100000201800002008B5024B17
:10068C001B685B6C019308BDD001060808B5024BD2
:10069C001B689B6C019308BDD001060808B5024B82
:1006AC001B685B68019308BD9C01060808B5024BEA
:1006BC001B685B69019308BD9C01060808B5024BD9
:1006CC001B689B68019308BDB001060808B5024B76
:1006DC001B68DB68019308BDB001060808B5024B26
:1006EC001B681B69019308BDB001060808B5024BD5
:1006FC001B685B69019308BDB001060808B5024B85
:10070C001B681B6E019308BDAC01060808B5024BB3
:10071C001B685B6E019308BDAC01060808B5024B63
:10072C001B689B6E019308BDAC01060808B5024B13
:10073C001B68DB6E019308BDAC01060808B5024BC3
:10074C001B681B6F019308BDAC01060808B5024B72
:10075C001B685B6F019308BDAC01060808B5034B21
:10076C001B68D3F88030019308BD0000AC0106086B
:10077C0008B5024B1B68DB69019308BDB401060880
:10078C0008B5024B1B681B6A019308BDB40106082F
:10079C0008B5024B1B685B6A019308BDC4010608CF
:1007AC0008B5024B1B689B6A019308BDC40106087F
:1007BC0008B5024B1B68DB6A019308BDC40106082F
:1007CC0008B5024B1B681B6B019308BDC4010608DE
:1007DC0008B5024B1B685B6B019308BDC40106088E
:1007EC0008B5024B1B689B6B019308BDC40106083E
:1007FC0008B5024B1B681B6C019308BDC4010608AD
:10080C0008B5024B1B681B6E019308BDC40106089A
:10081C0008B5024B1B681B68019308BDD80106087C
:10082C0008B5024B1B685B68019308BDD80106082C
:10083C0008B5024B1B681B69019308BDD80106085B
:10084C0008B5024B1B685B69019308BDD80106080B
:10085C0008B5024B1B689B69019308BDD8010608BB
:10086C0008B5024B1B68DB69019308BDD80106086B
:10087C0008B5024B1B681B6A019308BDD80106081A
:10088C0008B5024B1B689B6C019308BDC0010608A0
:10089C0008B5024B1B685B68019308BDA4010608F0
:1008AC0008B5024B1B685B69019308BDA4010608DF
:1008BC0008B5034B1B68D3F89030019308BD0000BA
:1008CC00A401060808B5034B1B68D3F89C300193B0
:1008DC0008BD0000A401060808B5024B1B68DB6BC1
:1008EC00019308BDCC01060808B5024B1B685B6878
:1008FC00019308BDC801060808B5024B1B689B682C
:10090C00019308BDC801060808B5024B1B68DB68DB
:10091C00019308BDC801060808B5024B1B681B698A
:10092C00019308BDC801060808B5024B1B685B693A
:10093C00019308BDC801060808B5024B1B689B69EA
:10094C00019308BDC801060808B5024B1B68DB699A
:10095C00019308BDC801060808B5024B1B681B6A49
:10096C00019308BDC801060808B5024B1B681B6B38
:10097C00019308BDC801060808B5024B1B685B6BE8
:10098C00019308BDC801060808B5024B1B681B6C17
:10099C00019308BDC801060808B5024B1B685B6CC7
:1009AC00019308BDC801060808B5024B1B681B68FB
:1009BC00019308BDA001060808B5024B1B685B68D3
:1009CC00019308BDA001060808B5024B1B681B6CFF
:1009DC00019308BDA001060808B5024B1B685B6CAF
:1009EC00019308BDA00106080021FFF759BF70470D
:1009FC00F8B5064615460C468F18BC4206D033682F
:100A0C0030469B6814F8011B9847F6E72846F8BD5A
:100A1C000022007CFFF772BE0021007CFFF776BE3F
:100A2C000021007CFFF77ABE0021007CFFF77EBE20
:100A3C000021007CFFF782BE10B504461421FFF79D
:100A4C0026FB204610BD000010B54FF47A73044607
:100A5C0008460021C4E90113034B1146236020749E
:100A6C00FFF77CFE204610BD08170A087047F8B542
:100A7C000E46002400F10807051D17F8011D0A2277
:100A8C00304600F00CF9AF42044401D12046F8BDC9
:100A9C00002CF2D02E21304600F0E8F80444ECE7AC
:100AAC0010B504461821FFF7F2FA204610BD0000DD
:100ABC0010B50446044B1122002140F8043B00F011
:100ACC008DFC204610BD00BF30170A080346074AAC
:100ADC0010B543F8042B01F1100251F8044B91426C
:100AEC0043F8044BF9D10A781A7010BD30170A0874
:100AFC00024AC0E9002104220275704730170A0827
:100B0C0010B59DF8084044EA0324042344EA024447
:100B1C0044EA01644460037510BD000013B5044C35
:100B2C0004609DF810400094FFF7EAFF02B010BD7E
:100B3C0030170A08014B024A1A607047A8000020BF
:100B4C003C170A08002340681A46FFF7CDBE002266
:100B5C0002214068FFF7D8BE002240681146FFF71B
:100B6C00CBBE002240681146FFF7D6BE002340687A
:100B7C001A461946FFF7D8BE002340681A46194694
:100B8C00FFF7DABE00214068FFF7FEBE0021406887
:100B9C00FFF702BF0022406881F00101FFF7D4BECD
:100BAC0000224068FFF7E0BE002240681146FFF7C4
:100BBC00E3BE002240681146FFF7CEBE70B5154665
:100BCC008EB0044608A8FFF773FF1122002103A87A
:100BDC0000F004FC0026284600F074FC0A4B00963A
:100BEC0081B25B68284603AAFFF74AFE30B1314652
:100BFC002046FFF77DFF20460EB070BD204603A9AE
:100C0C00FFF764FFF7E700BF0C040020024B034A18
:100C1C001A6000225A607047AC00002048170A087E
:100C2C00F8B506460D4600248F18BD420CD033682B
:100C3C0030469B6815F8011B9847031E01DB1C44CA
:100C4C00F3E7002C08BF1C462046F8BD70B50546DE
:100C5C000C46084649B100F035FC2B68024621468B
:100C6C002846BDE87040DB68184770BD03689B6878
:100C7C00184738B50D210546FFF7F8FF0A21044641
:100C8C002846FFF7F3FF204438BD38B50546FFF77B
:100C9C00DDFF04462846FFF7ECFF204438BD002357
:100CAC00012A98BF0A2230B58BB00C468DF824303F
:100CBC0009A92546B4FBF2F404FB1253DBB2092B51
:100CCC0094BF30333733DBB2AA4201F8013DF0D97F
:100CDC00FFF7BCFF0BB030BD0022014B9A60704790
:100CEC00B400002070B5002604460D4640F8086F8D
:100CFC00FFF7C4FC28462570FFF73AFD20466660D6
:100D0C0070BD000002220020044B1A60044B054AFF
:100D1C00C3E900009A60FFF7BBBD00BFD000002004
:100D2C00C40000200000FFFF024B1A68024B1A603F
:100D3C00704700BF1C000020D40000207047417495
:100D4C00704708B5007CFFF753FD20EAE07008BD42
:100D5C0008B5007CFFF724FD20EAE07008BD08B55B
:100D6C00007CFFF72DFD40EAE07008BD08B5007C63
:100D7C00FFF71EFD40EAE07008BD007CFFF728BDC0
:100D8C0070B5467C04460D462EB12946207CBDE844
:100D9C007040FFF7FDBC007CFFF72AFD0028F4DC57
:100DAC00304670BD10B504461421FFF770F920468B
:100DBC0010BD000010B54FF47A7304460846114676
:100DCC000022C4E90123044B2074236001236374C3
:100DDC00FFF716FD204610BDA0170A084174704796
:100DEC007047704708B50021007CFFF731FD40EAE1
:100DFC00E07008BD08B50121007CFFF729FD40EA31
:100E0C00E07008BD08B5007CFFF71AFD20EAE07021
:100E1C0008BD08B5007CFFF70BFD20EAE07008BDAB
:100E2C0038B50446007C0D46FFF70AFD002801DCAE
:100E3C00607C28B12946207CFFF712FD20EAE07087
:100E4C0038BD007CFFF714BD10B504461421FFF724
:100E5C001EF9204610BD704710B54FF47A73044646
:100E6C0008460021C4E90113044B207423600123BC
:100E7C0011466374FFF7CCFC204610BDD0170A084E
:100E8C000022007CFFF7CCBC10B5044614220021D4
:100E9C0000F0A4FA054B20466360054BE36040F27A
:100EAC00011323818123238210BD00BF0801002080
:100EBC000902002030B50E4D87B001A8FFF7E4FF02
:100ECC002978BFF35B8F11F001040ED12846FFF790
:100EDC00E0F850B1214601AA0648FFF7BDFF2846AD
:100EEC00FFF7DCF8044800F065FA024807B030BDA3
:100EFC00D8000020E0000020ED0D0A0810B50446D3
:100F0C001422002100F06AFA054B20466360054B61
:100F1C00E36040F2011323818123238210BD00BFC3
:100F2C008A0200208B03002010B50E4C86B001A85D
:100F3C00FFF7E4FF2378BFF35B8FDB070ED420466B
:100F4C00FFF7A7F850B1012101AA0748FFF784FF6A
:100F5C002046FFF7A3F8054800F02CFA024806B02B
:100F6C0010BD00BFDC000020F4000020630E0A0856
:100F7C00002240681146FFF7CFBCF0B5154689B08A
:100F8C0011220E460446002103A800F027FA284639
:100F9C0000F098FA002781B273682846009703AADC
:100FAC00FFF76EFC30B139462046FFF7A1FD204615
:100FBC0009B0F0BD204603A9FFF788FDF7E7002232
:100FCC0040681146FFF7C8BC002240681146FFF785
:100FDC00D3BC00224068FFF7C7BC0022406881F0F8
:100FEC000101FFF7B1BC002340681A461946FFF710
:100FFC00A3BC002340681A461946FFF795BC002293
:10100C0040681146FFF778BC002202214068FFF7C8
:10101C007BBC002340681A46FFF766BC0422024BD7
:10102C005A60024A1A6070470C04002000180A0823
:10103C00014B1860704700BF2000002008B5134B0F
:10104C0043B1FFF737FF03681B699847002801DDA0
:10105C00AFF300800E4B43B100F086F903681B69B7
:10106C009847002801DDAFF300800A4B0BB1AFF3BA
:10107C000080094B43B1FFF757FF03681B69984782
:10108C00002801DDAFF3008008BD00BF00000000A8
:10109C0000000000000000000000000008B5FFF791
:1010AC00CDFFFFF703FB014B186008BD2C0400209B
:1010BC000548064A08B5121A054900F081F9054B96
:1010CC00054A1A6008BD00BF0040024004400240BF
:1010DC00D0180A08004002401E1C279A002307B5AE
:1010EC001A466FF077010093FFF7ECFB03B05DF845
:1010FC0004FB000007B543880A2B08D0502B0BD1FA
:10110C00094B1B684BB103B05DF804EB1847FFF7B4
:10111C00E5FF03B05DF804FB00231A466FF077017E
:10112C000093FFF7CFFBF4E718040020002110B563
:10113C001148FFF751FC114B1A68114B9A420CBF26
:10114C00012200220F4B1A7001D0FFF7B1FFFFF7FD
:10115C00A5FA044600F04AF90B4B13B12046AFF345
:10116C00008000210848FFF7B7FBBDE810400021C4
:10117C000648FFF79DBB00BF3D100A080040024027
:10118C001E1C279A140400200000000001110A08FC
:10119C00024B986808B1FFF779BA70472004002019
:1011AC00172870B5044601D9002070BDA0F10D03BD
:1011BC00022B0BD9012824D800F088F80021007CE0
:1011CC00FFF7C4FA80F00100C0B2EEE7124E31789E
:1011DC00BFF35B8F11F001050DD13046FEF759FFBF
:1011EC0048B129460D48FFF77DFD3046FEF756FF06
:1011FC000B4800F0DFF8094B1878FFF7C1FA00280C
:10120C00D2D1123C012C05D800F0AEF8007CFFF7CF
:10121C00E7FAD7E70120C8E71C04002020040020CF
:10122C009D110A08172838B504460D460AD8FF291F
:10123C0008D0FFF7B5FF28B129462046BDE8384055
:10124C00FFF73CBA38BD38B504460D46FFF73EFAF9
:10125C00FF2810D0062804D84D2323FA00F0C3072A
:10126C0009D42046FFF79CFF28B129462046BDE84B
:10127C003840FFF733BA38BD10B50446FFF726FAED
:10128C00031FDBB2012B08D92046FFF789FF20B1E1
:10129C002046BDE81040FFF729BA002010BD70476A
:1012AC0070B514232025084E044603603146856032
:1012BC000561284600F07CF831466060284600F055
:1012CC0077F8E060204670BD34180A0830B50E4D32
:1012DC0087B02978BFF35B8F11F0010411D1284638
:1012EC00FEF7D7FE68B101A8FFF7DAFF214601AA85
:1012FC000648FFF7A9FB2846FEF7D0FE044800F08D
:10130C0059F8024807B030BD3004002034040020E6
:10131C00AB120A08002307B51A4619460093034876
:10132C00FFF7FCFB03B05DF804FB00BF4804002092
:10133C007047000070B5142504462A46002100F0C1
:10134C004DF825808025074E28463146258125827B
:10135C0000F02EF831466060284600F029F8E06075
:10136C00204670BD34180A0830B50E4D87B0297868
:10137C00BFF35B8F11F0010411D12846FEF789FEF3
:10138C0068B101A8FFF7D6FF214601AA0648FFF76E
:10139C0011FD2846FEF782FE044800F00BF80248C7
:1013AC0007B030BD60040020640400203D130A081F
:1013BC00FEF76BBE002301461A46184600F08AB8A9
:1013CC000A44914200F1FF3300D1704710B511F877
:1013DC00014B914203F8014FF9D110BD0346024471
:1013EC00934200D1704703F8011BF9E738B5104B55
:1013FC0004461D68AB6BB3B91820FFF7D5FA02464B
:10140C00A86320B942210B4B0B48FFF7DDFA0B49BF
:10141C000B4BC0E900130B4B002183600B23838122
:10142C000120C2E904010022AB6B1C615A6138BD7A
:10143C002000002035180A084C180A080E33CDABD2
:10144C0034126DE6ECDE0500164B10B51C68A36B70
:10145C00B3B91820FFF7A8FA0246A06320B94E21B1
:10146C00114B1248FFF7B0FA1149124BC0E90013A7
:10147C00114B002183600B2383810120C2E90401FD
:10148C00A46B0E4A2069636942430D4901FB032298
:10149C00A0FB0101431C42EB0100C4E9043020F025
:1014AC00004010BD2000002035180A084C180A080E
:1014BC000E33CDAB34126DE6ECDE05002DF4515835
:1014CC002D7F954C034613F8012B002AFBD1181ADB
:1014DC00013870472DE9F843DFF8AC800646D8F8A0
:1014EC0000001F460D46914600F058F8274B1C682B
:1014FC0034B9274C1C60274B13B11B68C4F88830D7
:10150C0063681F2B07DDD8F8000000F049F84FF096
:10151C00FF30BDE8F8835EB3D4F8880088B91E4B61
:10152C0023B9D8F8000000F03AF8F0E74FF48470D3
:10153C00FFF73AFA0028F4D00023C0E94033C4F88E
:10154C00880001226368022E40F8239002FA03F20D
:10155C0000EB8301D0F8003143EA0203C0F80031FC
:10156C00C1F8807002BFD0F804311343C0F80431C5
:10157C006368D8F800005A1C0233626044F82350A8
:10158C0000F00EF80020C4E78400002004050020C1
:10159C007804002000000000B5090A087047704765
:1015AC00704700001D000A085D000A0885000A0843
:1015BC0089000A0800000000426C75652062757491
:1015CC00746F6E20707265737320646574656374D8
:1015DC0065642E2053746172742074686520676191
:1015EC006D652100486F6C642074686520677265B6
:1015FC00656E20627574746F6E2E00204E6F2070B5
:10160C006F696E7473206177617264656400205237
:10161C006573747261696E7420706F696E74206189
:10162C007761726465640053696D6F6E20736179C4
:10163C007320686F6C642074686520677265656ED2
:10164C0020627574746F6E2E00203120706F696E7D
:10165C007420617761726465640053696D6F6E20EC
:10166C007361797320686F6C642074686520796588
:10167C006C6C6F7720627574746F6E2E005072658F
:10168C007373207468652072656420627574746F5E
:10169C006E0053696D6F6E207361797320686F6C87
:1016AC0064207468652072656420627574746F6E52
:1016BC0000536F6D657468696E672077656E742072
:1016CC0077726F6E6700426C756520627574746F0B
:1016DC006E207072657373206465746563746564E1
:1016EC002E20456E7465722069646C65206D6F6484
:1016FC00650000000000000000000000FB090A0863
:10170C00450A0A081D0A0A08FD090A08250A0A08DA
:10171C002D0A0A08350A0A083D0A0A0800000000CA
:10172C00000000007B0A0A08790A0A08AD0A0A08B8
:10173C00617070000000000000000000510B0A08EE
:10174C005B0B0A08650B0A086F0B0A08790B0A0871
:10175C00850B0A08910B0A08990B0A08A10B0A08B9
:10176C00AD0B0A08B50B0A08BF0B0A08C90B0A080F
:10177C0025592D256D2D25645425483A254D3A259E
:10178C0053257A0061736374696D65000000000075
:10179C0000000000490D0A08B10D0A088D0D0A0859
:1017AC002D0C0A085D0D0A08790D0A086B0D0A0844
:1017BC00870D0A084B0D0A084F0D0A08000000009F
:1017CC0000000000EF0D0A08550E0A082D0E0A083D
:1017DC002D0C0A081F0E0A08F10D0A08010E0A0842
:1017EC004F0E0A08110E0A08E90D0A080000000045
:1017FC00000000001F100A0815100A080B100A0838
:10180C007D0F0A08FF0F0A08F30F0A08910B0A084C
:10181C00990B0A08E70F0A08DF0F0A08D50F0A0808
:10182C00CB0F0A08870F0A08005245454E54206D0D
:10183C00616C6C6F632073756363656564656400CC
:10184C002F746D702F6A656E6B696E732D474343F1
:10185C002D31302D706970656C696E652D34385F73
:10186C0032303230313132345F313630363138301B
:10187C003633392F7372632F6E65776C69622F6EF6
:10188C0065776C69622F6C6962632F7374646C6921
:10189C00622F72616E642E6300000000410B0A0817
:1018AC00190C0A08E50C0A08110D0A08350D0A086E
:1018BC0029100A0821130A0800000000000000008B
:0418CC000000000018
:0418D0000000000014
:1018D40002000000060000000400000001000000F7
:1018E400030000000A0000000500000090170A0829
:1018F40024000020000000000000000000000000A0
:1019040000000000000000000000000000000000D3
:1019140000000000000000000000000000000000C3
:1019240000000000000000000000000000000000B3
:1019340000000000000000000000000000000000A3
:101944000000000000000000000000000000000093
:0819540000000000080500205E
:10195C00FFFFFFFF00000102030405060708090A48
:10196C000B0C0D0E0F101112131415161718191A43
:08197C001B1C1D1E1F2028008A
:04198400785634124B
:04000005080A001CC9
:00000001FF
