:02000004080AE8
:1000000000000A08A41B0A080000060006000501FB
:080010000402E50C00000000F1
:04001800CC170A08EF
:10001C0009480A4908B5884205D0094A824202D0EB
:10002C00121A01F0DBFA0748074A0021121A01F0F4
:10003C00E3FA064808BD00BF00000020F41A0A08C5
:10004C0088000020880000200D0500200D050020F0
:10005C0070B501F079F90025054E064CA41BA408D7
:10006C00AC4200D170BD56F8043B98470135F7E718
:10007C00D01A0A08EC1A0A0800F014B808B500F0F7
:10008C004FF9BDE8084001F017B900F097BD00F03A
:10009C009DBD0078B0FA80F04009704701230370D1
:1000AC007047000010B5234C02220023224923483C
:1000BC0000F014FD2088012101F0C2F92088204CA9
:1000CC00002101F0CEF92088012101F0B9F9208836
:1000DC001C4C002101F0C5F92088012101F0B0F978
:1000EC002088194C002101F0BCF92088012101F075
:1000FC00A7F92088002101F0B4F9144B03211888CA
:10010C0001F09EF9124B0321188801F099F9114B5B
:10011C000321188801F094F90F4B0321188801F082
:10012C008FF900F0D5FFBDE810404FF4165100F0E8
:10013C00B5BF00BF0C00002090000020E0170A089B
:10014C001000002018000020140000208C0000205B
:10015C00000000200800002004000020F8B53C4FEF
:10016C003C4E3D4D388801213C4C01F07AF93088E9
:10017C00012101F076F92888012101F072F90121A1
:10018C00208801F06EF9642000F038FD38880021D9
:10019C0001F067F93088002101F063F9288800210B
:1001AC0001F05FF90021208801F05BF9642000F078
:1001BC0025FD3888012101F054F93088012101F026
:1001CC0050F92888012101F04CF90121208801F017
:1001DC0048F9642000F012FD3888002101F041F943
:1001EC003088002101F03DF92888002101F039F90F
:1001FC000021208801F035F9642000F0FFFC3888DC
:10020C00012101F02EF93088012101F02AF928880A
:10021C00012101F026F90121208801F022F9642046
:10022C0000F0ECFC3888002101F01BF9308800212B
:10023C0001F017F92888002101F013F9208800211A
:10024C0001F00FF9BDE8F840642000F0D7BC00BF06
:10025C000C000020100000201800002014000020CA
:10026C00F8B52B4F2B4E2C4D388800212B4C01F020
:10027C00F8F83088012101F0F4F82888002101F009
:10028C00F0F80021208801F0ECF84FF47A7000F0BF
:10029C00B5FC3888002101F0E4F83088002101F029
:1002AC00E0F82888012101F0DCF80021208801F019
:1002BC00D8F84FF47A7000F0A1FC3888002101F0D6
:1002CC00D0F83088002101F0CCF82888002101F00A
:1002DC00C8F80121208801F0C4F84FF47A7000F0BE
:1002EC008DFC3888002101F0BCF83088012101F028
:1002FC00B8F82888012101F0B4F82088012101F018
:10030C00B0F8BDE8F8404FF47A7000F077BC00BF4D
:10031C000C00002010000020180000201400002009
:10032C002DE9F74F00F0C4FAB64B8246188801F05D
:10033C00B1F8DFF8D492044699F80030DFF8CC829B
:10034C00B34D002B40F08D80B8F8000001F0A2F8FE
:10035C00B04B8046188801F09DF8AF4B07461888C3
:10036C0001F098F8DFF8B4B20646DBF800305345DC
:10037C0029D2AB4B197881F001011970A94B18885F
:10038C0001F06FF8A84B197881F001011970A74B97
:10039C00188801F066F8A64B197881F001011970E4
:1003AC00A44B188801F05DF8A34B197881F001017A
:1003BC001970A24B188801F054F8DBF8003003F5E3
:1003CC007A73CBF80030012C0FD12B686BB900F08D
:1003DC007FFE9B4900F067FD99F800302C6083F09C
:1003EC00010389F80030FFF73BFFB8F1010F03D090
:1003FC00012F01D0012E16D100F06AFE914900F0B8
:10040C003FFD00F065FE904B05461C68002C26DA7B
:10041C002D2100F039FD61420A22284600F04DFDE5
:10042C00284600F034FD774B794D188801F032F8EE
:10043C00012804460BD12B684BB900F049FE8349C7
:10044C0000F031FD704A137883F0010313704FF400
:10045C007A7000F0D3FB2C6003B0BDE8F08F21461E
:10046C00DAE70027B8F800002F6001F013F8DFF886
:10047C00A4A10646BAF8000001F00CF8DFF8989138
:10048C000546B9F8000001F005F8DFF898B13946D7
:10049C000446BBF8000000F0E4FF644A39461088BB
:1004AC0000F0DFFF634B3946188800F0DAFF634B2E
:1004BC003946188800F0D5FF4FF4FA7000F09EFB17
:1004CC0001F0D0F8009001F0CDF8032190FBF1F190
:1004DC0001EB4101411A0129564B00F0CB80022956
:1004EC0000F03A81514A002940F096811088012190
:1004FC0000F0B7FF322000F081FB009BDA0746D4F6
:10050C0000F0E6FD524900F0CEFC40F6C41000F0BD
:10051C0075FBB8F8000000F0BDFF0646BAF8000005
:10052C0000F0B8FF0546B9F8000000F0B3FF012E4B
:10053C00044603D0012D01D001281ED100F0C8FDC6
:10054C00444900F0B0FCFFF709FE2F4A137883F002
:10055C0001031370322000F051FB00F0B9FD3E494D
:10056C0000F0A1FC4FF47A7000F048FB3B4B1E608E
:10057C003B4B1D603B4B1C6055E700F0A9FD3A4915
:10058C0000F091FC304A136801331360E2E700F08D
:10059C009FFD364900F087FC0121BBF8000000F0FC
:1005AC0060FF40F6C41000F029FBB8F8000000F022
:1005BC0071FF0646BAF8000000F06CFF0746B9F868
:1005CC00000000F067FF012E04460DD157EA00052C
:1005DC000AD100F07DFD264900F065FC1A4A2C4634
:1005EC00136801331360B5E700F072FD194900F090
:1005FC005AFCFFF7B3FD044A3D46137883F0010320
:10060C001370A7E78C000020A4000020000000203D
:10061C00940000200800002004000020A800002006
:10062C00880000200C000020890000201000002011
:10063C008B000020180000208A00002014000020ED
:10064C00E7170A0813180A0890000020F9180A087E
:10065C001D180A0834180A081C180A0898000020EB
:10066C00A00000209C00002047180A085A180A080D
:10067C007C180A081888019100F0F3FE322000F073
:10068C00BDFA009B019913F0010F2AD100F020FD57
:10069C006E4900F008FC40F6C41000F0AFFAB8F850
:1006AC00000000F0F7FE0646BAF8000000F0F2FE7B
:1006BC000546B9F8000000F0EDFE012D044603D00C
:1006CC00012E01D0012870D100F002FD604900F02C
:1006DC00EAFBFFF743FD5F4A137883F001031370C5
:1006EC002AE0BBF8000000F0BCFE00F0F1FC5A4917
:1006FC0000F0D9FB40F6C41000F080FAB8F8000006
:10070C0000F0C8FE0746BAF8000000F0C3FE05462C
:10071C00B9F8000000F0BEFE012D04460ED157EAD8
:10072C0000060BD1344600F0D3FC4C4900F0BBFB67
:10073C004B4A13680133136064200CE700F0C8FCCB
:10074C00434900F0B0FBFFF709FD424A3E461378DF
:10075C0083F001031370EFE7424B0121188800F07E
:10076C0080FE322000F04AFA009BDB0727D400F011
:10077C00AFFC3D4900F097FB40F6C41000F03EFA88
:10078C00B8F8000000F086FE0646BAF8000000F04B
:10079C0081FE0546B9F8000000F07CFE01280446F5
:1007AC0092D0012E90D0012D8DE700F091FC2F49B5
:1007BC0000F079FB2A4A136801331360BCE701216E
:1007CC00BBF8000000F04DFE00F082FC284900F060
:1007DC006AFB40F6C41000F011FAB8F8000000F003
:1007EC0059FE0746BAF8000000F054FE0546B9F869
:1007FC00000000F04FFE012804469FD157EA050681
:10080C009CD100F065FC154900F04DFB144A3546AF
:10081C001368013313608FE700F05AFC154900F0A0
:10082C0042FB3946BBF8000000F01BFE124A394669
:10083C00108800F016FE114B3946188800F011FE96
:10084C00084B3946188800F00CFE86E698180A0802
:10085C0034180A08A40000208D180A087C180A080D
:10086C009000002014000020B0180A0847180A084D
:10087C00C5180A08E4180A08100000201800002007
:10088C0008B5024B1B685B6C019308BDD0010608D0
:10089C0008B5024B1B689B6C019308BDD001060880
:1008AC0008B5024B1B685B68019308BD9C010608E8
:1008BC0008B5024B1B685B69019308BD9C010608D7
:1008CC0008B5024B1B689B68019308BDB001060874
:1008DC0008B5024B1B68DB68019308BDB001060824
:1008EC0008B5024B1B681B69019308BDB0010608D3
:1008FC0008B5024B1B685B69019308BDB001060883
:10090C0008B5024B1B681B6E019308BDAC010608B1
:10091C0008B5024B1B685B6E019308BDAC01060861
:10092C0008B5024B1B689B6E019308BDAC01060811
:10093C0008B5024B1B68DB6E019308BDAC010608C1
:10094C0008B5024B1B681B6F019308BDAC01060870
:10095C0008B5024B1B685B6F019308BDAC01060820
:10096C0008B5034B1B68D3F88030019308BD000019
:10097C00AC01060808B5024B1B68DB69019308BD86
:10098C00B401060808B5024B1B681B6A019308BD2D
:10099C00B401060808B5024B1B685B6A019308BDDD
:1009AC00C401060808B5024B1B689B6A019308BD7D
:1009BC00C401060808B5024B1B68DB6A019308BD2D
:1009CC00C401060808B5024B1B681B6B019308BDDC
:1009DC00C401060808B5024B1B685B6B019308BD8C
:1009EC00C401060808B5024B1B689B6B019308BD3C
:1009FC00C401060808B5024B1B681B6C019308BDAB
:100A0C00C401060808B5024B1B681B6E019308BD98
:100A1C00C401060808B5024B1B681B68019308BD8E
:100A2C00D801060808B5024B1B685B68019308BD2A
:100A3C00D801060808B5024B1B681B69019308BD59
:100A4C00D801060808B5024B1B685B69019308BD09
:100A5C00D801060808B5024B1B689B69019308BDB9
:100A6C00D801060808B5024B1B68DB69019308BD69
:100A7C00D801060808B5024B1B681B6A019308BD18
:100A8C00D801060808B5024B1B689B6C019308BD86
:100A9C00C001060808B5024B1B685B68019308BDD2
:100AAC00A401060808B5024B1B685B69019308BDDD
:100ABC00A401060808B5034B1B68D3F890300193CA
:100ACC0008BD0000A401060808B5034B1B68D3F849
:100ADC009C30019308BD0000A401060808B5024B28
:100AEC001B681B68019308BDCC01060808B5024BB6
:100AFC001B68DB6B019308BDCC01060808B5024BE3
:100B0C001B685B68019308BDC801060808B5024B59
:100B1C001B689B68019308BDC801060808B5024B09
:100B2C001B68DB68019308BDC801060808B5024BB9
:100B3C001B681B69019308BDC801060808B5024B68
:100B4C001B685B69019308BDC801060808B5024B18
:100B5C001B689B69019308BDC801060808B5024BC8
:100B6C001B68DB69019308BDC801060808B5024B78
:100B7C001B681B6A019308BDC801060808B5024B27
:100B8C001B681B6B019308BDC801060808B5024B16
:100B9C001B685B6B019308BDC801060808B5024BC6
:100BAC001B681B6C019308BDC801060808B5024BF5
:100BBC001B685B6C019308BDC801060808B5024BA5
:100BCC001B681B68019308BDA001060808B5024B01
:100BDC001B685B68019308BDA001060808B5024BB1
:100BEC001B681B6C019308BDA001060808B5024BDD
:100BFC001B685B6C019308BDA00106080021FFF780
:100C0C0051BF7047F8B5064615460C468F18BC42C6
:100C1C0006D0336830469B6814F8011B9847F6E7FA
:100C2C002846F8BD0022007CFFF76ABE0021007C3C
:100C3C00FFF76EBE0021007CFFF772BE0021007C26
:100C4C00FFF776BE0021007CFFF77ABE10B5044694
:100C5C001421FFF71CFA204610BD000010B54FF40C
:100C6C007A73044608460021C4E90113034B11466C
:100C7C0023602074FFF774FE204610BD30190A085B
:100C8C007047F8B50E46002400F10807051D17F84B
:100C9C00011D0A22304600F010F9AF42044401D184
:100CAC002046F8BD002CF2D02E21304600F0ECF896
:100CBC000444ECE710B504461821FFF7E8F9204688
:100CCC0010BD000010B50446044B1122002140F861
:100CDC00043B00F091FC204610BD00BF58190A08D7
:100CEC000346074A10B543F8042B01F1100251F8E2
:100CFC00044B914243F8044BF9D10A781A7010BD99
:100D0C0058190A08024AC0E90021042202757047EA
:100D1C0058190A0810B59DF8084044EA0324042326
:100D2C0044EA024444EA01644460037510BD0000C7
:100D3C0013B5044C04609DF810400094FFF7EAFFD3
:100D4C0002B010BD58190A08014B024A1A607047CC
:100D5C00AC00002064190A08002340681A46FFF70B
:100D6C00CDBE002202214068FFF7D8BE00224068A9
:100D7C001146FFF7CBBE002240681146FFF7D6BEE6
:100D8C00002340681A461946FFF7D8BE0023406876
:100D9C001A461946FFF7DABE00214068FFF7FEBE7F
:100DAC0000214068FFF702BF0022406881F001017A
:100DBC00FFF7D4BE00224068FFF7E0BE0022406877
:100DCC001146FFF7E3BE002240681146FFF7CEBE86
:100DDC0070B515468EB0044608A8FFF773FF1122B4
:100DEC00002103A800F008FC0026284600F078FC3F
:100DFC000A4B009681B25B68284603AAFFF742FEB5
:100E0C0030B131462046FFF77DFF20460EB070BD55
:100E1C00204603A9FFF764FFF7E700BF100400208A
:100E2C00024B034A1A6000225A607047B00000203F
:100E3C0070190A08F8B506460D4600248F18BD42F5
:100E4C000CD0336830469B6815F8011B9847031E7D
:100E5C0001DB1C44F3E7002C08BF1C462046F8BD00
:100E6C0070B505460C46084649B100F039FC2B68B4
:100E7C00024621462846BDE87040DB68184770BD25
:100E8C0008B5FFF7EDFF08BD03689B68184738B538
:100E9C000D210546FFF7F8FF0A2104462846FFF707
:100EAC00F3FF204438BD38B50546FFF7D9FF04469B
:100EBC002846FFF7ECFF204438BD0023012A98BFD9
:100ECC000A2230B58BB00C468DF8243009A9254682
:100EDC00B4FBF2F404FB1253DBB2092B94BF303396
:100EEC003733DBB2AA4201F8013DF0D9FFF7B8FF66
:100EFC000BB030BD0022014B9A607047B800002047
:100F0C0070B5002604460D4640F8086FFFF7B8FC94
:100F1C0028462570FFF72EFD2046666070BD000048
:100F2C0002220020044B1A60044B054AC3E900005E
:100F3C009A60FFF7AFBD00BFD4000020C8000020AE
:100F4C000000FFFF024B1A68024B1A60704700BF8B
:100F5C001C000020D800002070474174704708B571
:100F6C00007CFFF747FD20EAE07008BD08B5007C67
:100F7C00FFF718FD20EAE07008BD08B5007CFFF70C
:100F8C0021FD40EAE07008BD08B5007CFFF712FDBA
:100F9C0040EAE07008BD007CFFF71CBD70B5467CD4
:100FAC0004460D462EB12946207CBDE87040FFF763
:100FBC00F1BC007CFFF71EFD0028F4DC304670BD50
:100FCC0010B504461421FFF762F8204610BD00004E
:100FDC0010B54FF47A730446084611460022C4E952
:100FEC000123044B2074236001236374FFF70AFD73
:100FFC00204610BDC8190A084174704770477047E5
:10100C0008B50021007CFFF725FD40EAE07008BD23
:10101C0008B50121007CFFF71DFD40EAE07008BD1A
:10102C0008B5007CFFF70EFD20EAE07008BD08B59E
:10103C00007CFFF7FFFC20EAE07008BD38B50446E1
:10104C00007C0D46FFF7FEFC002801DC607C28B11B
:10105C002946207CFFF706FD20EAE07038BD007CB5
:10106C00FFF708BD10B504461421FFF710F8204611
:10107C0010BD704710B54FF47A7304460846002132
:10108C00C4E90113044B20742360012311466374DB
:10109C00FFF7C0FC204610BDF8190A080022007C9E
:1010AC00FFF7C0BC10B504461422002100F0A4FACE
:1010BC00054B20466360054BE36040F2011323812E
:1010CC008123238210BD00BF0C0100200D020020E3
:1010DC0030B50E4D87B001A8FFF7E4FF2978BFF3B8
:1010EC005B8F11F001040ED12846FEF7D2FF50B1F0
:1010FC00214601AA0648FFF7BDFF2846FEF7CEFFA2
:10110C00044800F065FA024807B030BDDC0000204E
:10111C00E400002009100A0810B50446142200212E
:10112C0000F06AFA054B20466360054BE36040F221
:10113C00011323818123238210BD00BF8E02002066
:10114C008F03002010B50E4C86B001A8FFF7E4FF0A
:10115C002378BFF35B8FDB070ED42046FEF799FF95
:10116C0050B1012101AA0748FFF784FF2046FEF782
:10117C0095FF054800F02CFA024806B010BD00BFE0
:10118C00E0000020F80000207F100A0800224068D0
:10119C001146FFF7CBBCF0B5154689B011220E46AF
:1011AC000446002103A800F027FA284600F098FA1C
:1011BC00002781B273682846009703AAFFF762FCE8
:1011CC0030B139462046FFF79DFD204609B0F0BDF1
:1011DC00204603A9FFF784FDF7E70022406811467B
:1011EC00FFF7C4BC002240681146FFF7CFBC0022B9
:1011FC004068FFF7C3BC0022406881F00101FFF793
:10120C00ADBC002340681A461946FFF79FBC00236B
:10121C0040681A461946FFF791BC002240681146F7
:10122C00FFF774BC002202214068FFF777BC002353
:10123C0040681A46FFF762BC0422024B5A60024A0D
:10124C001A60704710040020281A0A08014B186015
:10125C00704700BF2000002008B5134B43B1FFF7C7
:10126C0037FF03681B699847002801DDAFF3008046
:10127C000E4B43B100F086F903681B6998470028B0
:10128C0001DDAFF300800A4B0BB1AFF30080094BCB
:10129C0043B1FFF757FF03681B699847002801DD2E
:1012AC00AFF3008008BD00BF00000000000000008C
:1012BC00000000000000000008B5FFF7CDFFFFF7AD
:1012CC00F7FA014B186008BD300400200548064AA7
:1012DC0008B5121A054900F081F9054B054A1A6048
:1012EC0008BD00BF0040024004400240F01A0A084A
:1012FC00004002401E1C279A002307B51A466FF0C7
:10130C0077010093FFF7E0FB03B05DF804FB0000EE
:10131C0007B543880A2B08D0502B0BD1094B1B68FF
:10132C004BB103B05DF804EB1847FFF7E5FF03B0D2
:10133C005DF804FB00231A466FF077010093FFF76A
:10134C00C3FBF4E71C040020002110B51148FFF783
:10135C004DFC114B1A68114B9A420CBF0122002212
:10136C000F4B1A7001D0FFF7B1FFFFF799FA044643
:10137C0000F04AF90B4B13B12046AFF3008000216B
:10138C000848FFF7B3FBBDE8104000210648FFF703
:10139C0091BB00BF59120A08004002401E1C279A3C
:1013AC0018040020000000001D130A08024B986866
:1013BC0008B1FFF76DBA704724040020172870B5E8
:1013CC00044601D9002070BDA0F10D03022B0BD9EE
:1013DC00012824D800F088F80021007CFFF7B8FA27
:1013EC0080F00100C0B2EEE7124E3178BFF35B8F94
:1013FC0011F001050DD13046FEF74BFE48B12946E0
:10140C000D48FFF77DFD3046FEF748FE0B4800F017
:10141C00DFF8094B1878FFF7B5FA0028D2D1123C47
:10142C00012C05D800F0AEF8007CFFF7DBFAD7E70B
:10143C000120C8E72004002024040020B9130A0866
:10144C00172838B504460D460AD8FF2908D0FFF7EF
:10145C00B5FF28B129462046BDE83840FFF730BA21
:10146C0038BD38B504460D46FFF732FAFF2810D0C8
:10147C00062804D84D2323FA00F0C30709D42046CC
:10148C00FFF79CFF28B129462046BDE83840FFF7FE
:10149C0027BA38BD10B50446FFF71AFA031FDBB2A2
:1014AC00012B08D92046FFF789FF20B12046BDE863
:1014BC001040FFF71DBA002010BD704770B5142303
:1014CC002025084E04460360314685600561284698
:1014DC0000F07CF831466060284600F077F8E06058
:1014EC00204670BD5C1A0A0830B50E4D87B02978BD
:1014FC00BFF35B8F11F0010411D12846FEF7C9FD33
:10150C0068B101A8FFF7DAFF214601AA0648FFF7E8
:10151C00A5FB2846FEF7C2FD044800F059F8024826
:10152C0007B030BD3404002038040020C7140A086A
:10153C00002307B51A46194600930348FFF7F8FB3A
:10154C0003B05DF804FB00BF4C04002070470000A2
:10155C0070B5142504462A46002100F04DF825806C
:10156C008025074E284631462581258200F02EF82D
:10157C0031466060284600F029F8E060204670BDD6
:10158C005C1A0A0830B50E4D87B02978BFF35B8F13
:10159C0011F0010411D12846FEF77BFD68B101A8BA
:1015AC00FFF7D6FF214601AA0648FFF711FD284692
:1015BC00FEF774FD044800F00BF8024807B030BD8C
:1015CC00640400206804002059150A08FEF75DBD6C
:1015DC00002301461A46184600F08AB80A44914284
:1015EC0000F1FF3300D1704710B511F8014B914257
:1015FC0003F8014FF9D110BD03460244934200D1C8
:10160C00704703F8011BF9E738B5104B04461D6809
:10161C00AB6BB3B91820FFF7D1FA0246A86320B917
:10162C0042210B4B0B48FFF7D9FA0B490B4BC0E986
:10163C0000130B4B002183600B2383810120C2E933
:10164C0004010022AB6B1C615A6138BD20000020E4
:10165C005D1A0A08741A0A080E33CDAB34126DE603
:10166C00ECDE0500164B10B51C68A36BB3B9182043
:10167C00FFF7A4FA0246A06320B94E21114B124881
:10168C00FFF7ACFA1149124BC0E90013114B0021C2
:10169C0083600B2383810120C2E90401A46B0E4AF1
:1016AC002069636942430D4901FB0322A0FB010140
:1016BC00431C42EB0100C4E9043020F0004010BD93
:1016CC00200000205D1A0A08741A0A080E33CDABEC
:1016DC0034126DE6ECDE05002DF451582D7F954C3F
:1016EC00034613F8012B002AFBD1181A0138704756
:1016FC002DE9F843DFF8AC800646D8F800001F4609
:10170C000D46914600F058F8274B1C6834B9274C0D
:10171C001C60274B13B11B68C4F8883063681F2BFF
:10172C0007DDD8F8000000F049F84FF0FF30BDE8B5
:10173C00F8835EB3D4F8880088B91E4B23B9D8F867
:10174C00000000F03AF8F0E74FF48470FFF736FA37
:10175C000028F4D00023C0E94033C4F888000122EB
:10176C006368022E40F8239002FA03F200EB830127
:10177C00D0F8003143EA0203C0F80031C1F88070A0
:10178C0002BFD0F804311343C0F804316368D8F8B1
:10179C0000005A1C0233626044F8235000F00EF82B
:1017AC000020C4E784000020080500207C040020F1
:1017BC0000000000C90B0A08704770477047000012
:1017CC001D000A085D000A0885000A0889000A083D
:1017DC0000000000696E7456616C00426C756520E7
:1017EC00627574746F6E20707265737320646574A7
:1017FC0065637465642E205374617274207468651B
:10180C002067616D652100506F696E7473203D20F7
:10181C0000486F6C642074686520677265656E2083
:10182C00627574746F6E2E00204E6F20706F696E2F
:10183C007473206177617264656400204F6E65205B
:10184C00706F696E742061776172646564005369AE
:10185C006D6F6E207361797320686F6C642074688F
:10186C006520677265656E20627574746F6E2E00EC
:10187C00203120706F696E742061776172646564C9
:10188C000053696D6F6E207361797320686F6C649F
:10189C00207468652079656C6C6F77206275747440
:1018AC006F6E2E00507265737320746865207265BC
:1018BC006420627574746F6E0053696D6F6E207363
:1018CC0061797320686F6C6420746865207265643C
:1018DC0020627574746F6E00536F6D657468696EF9
:1018EC00672077656E742077726F6E6700426C7537
:1018FC006520627574746F6E2070726573732064EA
:10190C00657465637465642E20456E746572206918
:10191C00646C65206D6F64650000000000000000C1
:10192C00000000000F0C0A08590C0A08310C0A08B8
:10193C00110C0A08390C0A08410C0A08490C0A084F
:10194C00510C0A0800000000000000008F0C0A086F
:10195C008D0C0A08C10C0A086170700000000000B0
:10196C0000000000650D0A086F0D0A08790D0A08C1
:10197C00830D0A088D0D0A08990D0A08A50D0A0891
:10198C00AD0D0A08B50D0A08C10D0A08C90D0A08E3
:10199C00D30D0A08DD0D0A0825592D256D2D25645A
:1019AC005425483A254D3A2553257A0061736374C2
:1019BC00696D65000000000000000000650F0A085A
:1019CC00CD0F0A08A90F0A08410E0A08790F0A0858
:1019DC00950F0A08870F0A08A30F0A08670F0A0851
:1019EC006B0F0A0800000000000000000B100A0832
:1019FC0071100A0849100A08410E0A083B100A081F
:101A0C000D100A081D100A086B100A082D100A0880
:101A1C0005100A0800000000000000003B120A0834
:101A2C0031120A0827120A0899110A081B120A080F
:101A3C000F120A08A50D0A08AD0D0A0803120A08B0
:101A4C00FB110A08F1110A08E7110A08A3110A0888
:101A5C00005245454E54206D616C6C6F632073755C
:101A6C0063636565646564002F746D702F6A656EC1
:101A7C006B696E732D4743432D31302D7069706542
:101A8C006C696E652D34385F32303230313132341E
:101A9C005F313630363138303633392F7372632F2D
:101AAC006E65776C69622F6E65776C69622F6C69F5
:101ABC0062632F7374646C69622F72616E642E633F
:101ACC0000000000550D0A082D0E0A08010F0A0827
:101ADC002D0F0A08510F0A0845120A083D150A086D
:041AEC0000000000F6
:041AF00000000000F2
:101AF40002000000060000000400000001000000D5
:101B0400030000000A00000005000000B8190A08DC
:101B1400240000200000000000000000000000007D
:101B240000000000000000000000000000000000B1
:101B340000000000000000000000000000000000A1
:101B44000000000000000000000000000000000091
:101B54000000000000000000000000000000000081
:101B64000000000000000000000000000000000071
:081B7400000000000C05002038
:101B7C00FFFFFFFF00000102030405060708090A26
:101B8C000B0C0D0E0F101112131415161718191A21
:081B9C001B1C1D1E1F20280068
:041BA4007856341229
:04000005080A001CC9
:00000001FF
