:02000002B0004C
:1040000000400B00385C0B00000006000C000502AD
:084010000401A50F00000000EF
:0440180000580B0041
:10401C0009480A49884208B505D0094A824202D0AB
:10402C00121A01F0F7FA0748074A0021121A01F098
:10403C00FFFA014808BD00BF0CE60320885B0B00AB
:10404C0094E6032094E60320EDE7032070B5074EB9
:10405C00074C01F0ABF9A41BA4080025AC4200D11D
:10406C0070BD56F8043B98470135F7E7405B0B00F1
:10407C00605B0B0000F014B808B500F04FF9BDE818
:10408C00084001F04BB900F09DBD00F0A3BD0078D5
:10409C00B0FA80F0400970470123037070470000AC
:1040AC0010B5234C234924480222002300F01AFDAA
:1040BC002088012101F0EAF92088204C002101F030
:1040CC00F6F92088012101F0E1F920881C4C00212F
:1040DC0001F0EDF92088012101F0D8F92088194C64
:1040EC00002101F0E4F92088012101F0CFF92088AA
:1040FC00002101F0DCF9144B0321188801F0C6F9FA
:10410C00124B0321188801F0C1F9114B03211888B7
:10411C0001F0BCF90F4B0321188801F0B7F901F03D
:10412C0077F8BDE810404FF4165101F065B800BFA8
:10413C0018E603209CE6032014580B001CE6032011
:10414C0024E6032020E6032098E603200CE6032057
:10415C0014E6032010E60320F8B53C4F3C4E3D4DD1
:10416C0038883D4C012101F0A2F93088012101F081
:10417C009EF92888012101F09AF92088012101F08B
:10418C0096F9642000F03EFD3888002101F08FF98B
:10419C003088002101F08BF92888002101F087F983
:1041AC002088002101F083F9642000F02BFD388871
:1041BC00012101F07CF93088012101F078F928887F
:1041CC00012101F074F92088012101F070F96420BB
:1041DC0000F018FD3888002101F069F930880021C1
:1041EC0001F065F92888002101F061F9208800218F
:1041FC0001F05DF9642000F005FD3888012101F023
:10420C0056F93088012101F052F92888012101F07A
:10421C004EF92088012101F04AF9642000F0F2FCEB
:10422C003888002101F043F93088002101F03FF972
:10423C002888002101F03BF92088002101F037F992
:10424C00BDE8F840642000F0DDBC00BF18E6032098
:10425C001CE6032024E6032020E60320F8B52B4FB0
:10426C002B4E2C4D38882C4C002101F020F9308835
:10427C00012101F01CF92888002101F018F920888F
:10428C00002101F014F94FF47A7000F0BBFC38886F
:10429C00002101F00CF93088002101F008F9288880
:1042AC00012101F004F92088002101F000F94FF4FC
:1042BC007A7000F0A7FC3888002101F0F8F83088FB
:1042CC00002101F0F4F82888002101F0F0F8208892
:1042DC00012101F0ECF84FF47A7000F093FC38886F
:1042EC00002101F0E4F83088012101F0E0F8288881
:1042FC00012101F0DCF82088012101F0D8F8BDE89B
:10430C00F8404FF47A7000F07DBC00BF18E6032033
:10431C001CE6032024E6032020E603202DE9F74FBA
:10432C0000F0BCFAB64BDFF81893DFF83C83B54DC0
:10433C008246188801F0D4F899F800300446002B16
:10434C0040F08D80B8F80000DFF820B301F0C8F819
:10435C00AD4B8046188801F0C3F8AC4B0746188863
:10436C0001F0BEF8DBF800305345064629D2A84BC5
:10437C00197881F001011970A64B188801F097F893
:10438C00A54B197881F001011970A44B188801F024
:10439C008EF8A34B197881F001011970A14B188884
:1043AC0001F085F8A04B197881F0010119709F4B31
:1043BC00188801F07CF8DBF8003003F57A73CBF841
:1043CC000030012C0FD12B686BB900F021FF9849FC
:1043DC0000F019FE99F800302C6083F0010389F885
:1043EC000030FFF73BFFB8F1010F03D0012F01D0D4
:1043FC00012E16D100F00CFF8E4900F0F1FD00F0FB
:10440C0007FF8D4B1C68002C054626DA2D2100F089
:10441C00EBFD61420A22284600F0FFFD284600F021
:10442C00E6FD774B774D188801F05AF801280446C1
:10443C000BD12B684BB900F0EBFE804900F0E3FD8B
:10444C007F4A137883F0010313704FF47A7000F0F5
:10445C00D9FB2C6003B0BDE8F08F2146DAE70027CA
:10446C00B8F800002F6001F03BF8DFF89CA1DFF8F2
:10447C009C91DFF8A0B10646BAF8000001F030F8C4
:10448C000546B9F8000001F02BF839460446BBF894
:10449C00000001F00CF8614A3946108801F007F869
:1044AC00604B3946188801F002F8604B3946188881
:1044BC0000F0FDFF4FF4FA7000F0A4FB01F0EEF8F1
:1044CC00009001F0EBF8032190FBF1F101EB4101BD
:1044DC00411A0129534B00F0CB80022900F03A819C
:1044EC004E4A002940F096811088012100F0DFFF30
:1044FC00322000F087FB009BDA0746D400F088FEE0
:10450C00504900F080FD40F6C41000F07BFBB8F879
:10451C00000000F0E5FF0646BAF8000000F0E0FFEE
:10452C000546B9F8000000F0DBFF012E044603D06D
:10453C00012D01D001281ED100F06AFE424900F085
:10454C0062FDFFF709FE3E4A137883F001031370F6
:10455C00322000F057FB00F05BFE3C4900F053FDAD
:10456C004FF47A7000F04EFB394B1E60394B1D60D6
:10457C00394B1C6055E700F04BFE384900F043FD09
:10458C002D4A136801331360E2E700F041FE344911
:10459C0000F039FD0121BBF8000000F088FF40F667
:1045AC00C41000F02FFBB8F8000000F099FF06468D
:1045BC00BAF8000000F094FF0746B9F8000000F0CC
:1045CC008FFF012E04460DD157EA00050AD100F0E9
:1045DC001FFE244900F017FD174A136801331360BE
:1045EC002C46B5E700F014FE174900F00CFDFFF760
:1045FC00B3FD134A137883F0010313703D46A7E70C
:10460C0098E60320A0E6032014E6032010E603201E
:10461C0094E6032018E6032095E603201CE603200D
:10462C0097E6032024E6032096E6032020E60320E9
:10463C001B580B0047580B009CE603202D590B0010
:10464C00B0E6032051580B0068580B0050580B0073
:10465C00A4E60320ACE60320A8E603207B580B005D
:10466C008E580B00B0580B000CE60320B4E6032068
:10467C001888019100F01BFF322000F0C3FA009B58
:10468C00019913F0010F2AD100F0C2FD6E4900F020
:10469C00BAFC40F6C41000F0B5FAB8F8000000F00F
:1046AC001FFF0646BAF8000000F01AFF0546B9F8DD
:1046BC00000000F015FF012D044603D0012E01D09F
:1046CC00012870D100F0A4FD604900F09CFCFFF7BC
:1046DC0043FD5F4A137883F0010313702AE0BBF8A3
:1046EC00000000F0E4FE00F093FD5A4900F08BFC52
:1046FC0040F6C41000F086FAB8F8000000F0F0FEA6
:10470C000746BAF8000000F0EBFE0546B9F80000C9
:10471C0000F0E6FE012D04460ED157EA00060BD13F
:10472C0000F076FD4C4900F06EFC4C4A13680133E6
:10473C001360344664200CE700F06AFD434900F036
:10474C0062FCFFF709FD424A137883F001031370F2
:10475C003E46EFE7424B0121188800F0A8FE3220BC
:10476C0000F050FA009BDB0727D400F051FD3D49C7
:10477C0000F049FC40F6C41000F044FAB8F8000010
:10478C0000F0AEFE0646BAF8000000F0A9FE0546A1
:10479C00B9F8000000F0A4FE0128044692D0012EC6
:1047AC0090D0012D8DE700F033FD2F4900F02BFC4C
:1047BC002A4A136801331360BCE70121BBF80000DF
:1047CC0000F075FE00F024FD284900F01CFC40F6BA
:1047DC00C41000F017FAB8F8000000F081FE07468C
:1047EC00BAF8000000F07CFE0546B9F8000000F0B5
:1047FC0077FE012804469FD157EA05069CD100F0AC
:10480C0007FD154900F0FFFB144A136801331360D0
:10481C0035468FE700F0FCFC154900F0F4FBBBF8C3
:10482C000000394600F043FE124A3946108800F069
:10483C003EFE114B3946188800F039FE084B3946BC
:10484C00188800F034FE86E6CC580B0068580B0034
:10485C00B0E60320C1580B00B0580B009CE60320B7
:10486C0020E60320E4580B007B580B00F9580B0092
:10487C0018590B001CE6032024E6032008B5024B54
:10488C001B685B6C019308BD4802030008B5024B22
:10489C001B685B68019308BD1802030008B5024B46
:1048AC001B685B69019308BD1802030008B5024B35
:1048BC001B689B68019308BD2C02030008B5024BD2
:1048CC001B68DB68019308BD2C02030008B5024B82
:1048DC001B681B69019308BD2C02030008B5024B31
:1048EC001B685B69019308BD2C02030008B5024BE1
:1048FC001B681B6A019308BD2802030008B5024B14
:10490C001B685B6A019308BD2802030008B5024BC3
:10491C001B689B6A019308BD2802030008B5024B73
:10492C001B68DB6A019308BD2802030008B5024B23
:10493C001B681B6B019308BD2802030008B5024BD2
:10494C001B685B6B019308BD2802030008B5024B82
:10495C001B681B6C019308BD2802030008B5024BB1
:10496C001B685B69019308BD6402030008B5024B28
:10497C001B689B68019308BD6802030008B5024BD5
:10498C001B68DB68019308BD6802030008B5024B85
:10499C001B68DB69019308BD3002030008B5024BAC
:1049AC001B681B6A019308BD3002030008B5024B5B
:1049BC001B68DB68019308BD3C02030008B5024B81
:1049CC001B681B69019308BD3C02030008B5024B30
:1049DC001B685B69019308BD3C02030008B5024BE0
:1049EC001B689B69019308BD3C02030008B5024B90
:1049FC001B68DB69019308BD3C02030008B5024B40
:104A0C001B681B6A019308BD3C02030008B5024BEE
:104A1C001B689B6A019308BD3C02030008B5024B5E
:104A2C001B681B6C019308BD3C02030008B5024BCC
:104A3C001B681B68019308BD4C02030008B5024BB0
:104A4C001B685B68019308BD4C02030008B5024B60
:104A5C001B681B69019308BD4C02030008B5024B8F
:104A6C001B685B69019308BD4C02030008B5024B3F
:104A7C001B689B69019308BD4C02030008B5024BEF
:104A8C001B68DB69019308BD4C02030008B5024B9F
:104A9C001B681B6A019308BD4C02030008B5024B4E
:104AAC001B685B68019308BD2002030008B5024B2C
:104ABC001B685B69019308BD2002030008B5034B1A
:104ACC001B68D3F88830019308BD00002002030056
:104ADC0008B5034B1B68D3F89430019308BD000054
:104AEC002002030008B5024B1B681B68019308BD2C
:104AFC004402030008B5024B1B68DB6B019308BD35
:104B0C004402030008B5024B1B685B68019308BDA7
:104B1C004002030008B5024B1B689B68019308BD5B
:104B2C004002030008B5024B1B68DB68019308BD0B
:104B3C004002030008B5024B1B681B69019308BDBA
:104B4C004002030008B5024B1B685B69019308BD6A
:104B5C004002030008B5024B1B689B69019308BD1A
:104B6C004002030008B5024B1B68DB69019308BDCA
:104B7C004002030008B5024B1B681B6A019308BD79
:104B8C004002030008B5024B1B681B6B019308BD68
:104B9C004002030008B5024B1B685B6B019308BD18
:104BAC004002030008B5024B1B681B6C019308BD47
:104BBC004002030008B5024B1B685B6C019308BDF7
:104BCC004002030008B5024B1B681B68019308BD2B
:104BDC001C02030008B5024B1B685B68019308BDFF
:104BEC001C02030008B5024B1B681B6C019308BD2B
:104BFC001C02030008B5024B1B685B6C019308BDDB
:104C0C001C0203000021FFF751BF000002480023E3
:104C1C000360FFF733BE00BFB8E6032000224068F4
:104C2C001146FFF7A7BF002240681146FFF7B2BF3D
:104C3C0040680022FFF7A6BF4068002281F0010106
:104C4C00FFF790BF002340681A461946FFF782BF52
:104C5C00002340681A461946FFF774BF00224068CB
:104C6C001146FFF767BF002240681146FFF752BF9D
:104C7C00406800220221FFF755BF002340681A4606
:104C8C00FFF740BF024B03225A60024A1A6070477A
:104C9C00BCE6032064590B007047F8B50646154670
:104CAC000C468F18BC4206D0336814F8011B9B6865
:104CBC0030469847F6E72846F8BD007C0022FFF7FF
:104CCC0015BE007C0021FFF719BE007C0021FFF708
:104CDC001DBE007C0021FFF721BE007C0021FFF7E8
:104CEC0025BE10B514210446FFF7CFF9204610BDA0
:104CFC0038B5044615464FF47A730022C4E90123F3
:104D0C00094B2174084623602946FFF71FFEBF306C
:104D1C0008D16B69DB0705D56868FFF75BFFE868AE
:104D2C00FFF758FF204638BDA0590B00704710B54F
:104D3C0018210446FFF7A9F9204610BDF0B5037DF4
:104D4C00062B8DB00E4600F104074FF0000412D074
:104D5C0000F1080515F8011D0A22304600F05DF936
:104D6C00AF42044419D0002CF4D02E21304600F070
:104D7C003BF90444EEE72F236A4639460A208DF8A6
:104D8C000040FFF7EBFD684600F0C6FC33680246B6
:104D9C00DB68694630469847044620460DB0F0BDA6
:104DAC0010B5054B0446112240F8043B002100F0DD
:104DBC003FFC204610BD00BFC8590B000346074AF4
:104DCC0010B543F8042B01F1100251F8044B43F8D1
:104DDC00044B9142F9D10A781A7010BDC8590B00D6
:104DEC0010B59DF8084044EA032343EA024242EA24
:104DFC00016104234160037510BD000007B5064B2B
:104E0C000360CB7800938B784A780978FFF7E8FF3A
:104E1C0003B05DF804FB00BFC8590B00014B024AFC
:104E2C001A607047C4E60320D4590B000023406875
:104E3C001A46FFF767BE406800220221FFF772BED8
:104E4C00002240681146FFF765BE002240681146FB
:104E5C00FFF770BE002340681A461946FFF772BE72
:104E6C00002340681A461946FFF774BE40680021BB
:104E7C00FFF798BE40680021FFF79CBE40680022F7
:104E8C0081F00101FFF76EBE40680022FFF77ABE89
:104E9C00002240681146FFF77DBE00224068114693
:104EAC00FFF768BE2DE9F04395B014460D46074652
:104EBC00FFF776FF00211C220DA8009100F0B8FB33
:104ECC0040230C9320466B460CAA0021FFF756FD9D
:104EDC00044600284BD1024601216868FFF72AFEE0
:104EEC000221804622466868FFF724FE009E814618
:104EFC002146002E3BD0002939D17368022B03D0F8
:104F0C000A2B11D0F669F4E7B8F1000FFAD07169E9
:104F1C0006A8043107ADFFF771FF0FCD3C1D0FC480
:104F2C002B6823704146EDE7B9F1000FEAD07469A4
:104F3C00102201A800F07CFB06238DF8143001AD83
:104F4C0004F108031834186859682A4603C2083358
:104F5C00A3421546F7D101A906A807ADFFF72EFF0E
:104F6C000FCD3C1D0FC42B6823704946CAE700982F
:104F7C00FFF7FCFC384615B0BDE8F083024B034A42
:104F8C001A6000225A607047C8E60320E0590B00F3
:104F9C00F8B506460D468F180024BD420CD0336878
:104FAC0015F8011B9B6830469847031E01DB1C4417
:104FBC00F3E7002C08BF1C462046F8BD13B5044689
:104FCC00084659B1019100F0A7FB23680199DB68F1
:104FDC000246204602B0BDE81040184702B010BD92
:104FEC0008B5FFF7EBFF08BD03689B68184738B599
:104FFC000D210546FFF7F8FF0A2104462846FFF766
:10500C00F3FF204438BD38B50546FFF7D7FF0446FB
:10501C002846FFF7ECFF204438BD30B58BB0002399
:10502C00012A8DF8243098BF0A2209AC0D46B1FB39
:10503C00F2F101FB125303F0FF03092B94BF303341
:10504C003733DBB2AA4204F8013DEFD92146FFF712
:10505C00B5FF0BB030BD0000014B00229A607047C9
:10506C00D0E6032010B5044608462170FFF78EFCED
:10507C0000236360204610BD054B02221A60054BCD
:10508C00054A9A600020C3E90000FFF707BD00BF86
:10509C00ECE60320E0E603200000FFFF024B1A6859
:1050AC00024B1A60704700BF28E60320F0E603208D
:1050BC0070474174704708B5007CFFF7A7FC20EAE5
:1050CC00E07008BD08B5007CFFF778FC20EAE070C2
:1050DC0008BD08B5007CFFF781FC40EAE07008BD14
:1050EC0008B5007CFFF772FC40EAE07008BD007C5C
:1050FC00FFF77CBC37B5457C04462DB1207C03B052
:10510C00BDE83040FFF752BC007C0191FFF77EFCFC
:10511C0000280199F2DC284603B030BD10B51421EB
:10512C000446FEF7B2FF204610BD000010B54FF448
:10513C007A730446084611460022C4E90123044B45
:10514C002360012320746374FFF768FC204610BDB4
:10515C00385A0B00417470477047704708B50021EE
:10516C00007CFFF783FC40EAE07008BD08B5012124
:10517C00007CFFF77BFC40EAE07008BD08B5007CC2
:10518C00FFF76CFC20EAE07008BD08B5007CFFF767
:10519C005DFC20EAE07008BD13B50446007C01916B
:1051AC00FFF75CFC0028019901DC607C20B1207CBD
:1051BC00FFF764FC20EAE07002B010BD007CFFF742
:1051CC0065BC10B514210446FEF75FFF204610BDE8
:1051DC0010B54FF47A73044608460021C4E9011354
:1051EC00044B23600123207463741146FFF71EFCEB
:1051FC00204610BD685A0B00007C0022FFF71EBC35
:10520C0010B514220446002100F012FA204610BDFD
:10521C0010B50F4C88B003A8FFF7F2FF2178BFF34D
:10522C005B8F11F001010FD120460191FEF72FFF8A
:10523C00019948B103AA0748FFF7CAFF2046FEF7B9
:10524C002BFF054800F0E0F9024808B010BD00BF84
:10525C00F4E60320F8E6032065510B0000224068B9
:10526C001146FFF767BC002240681146FFF782BC6D
:10527C00002240681146FFF78DBC40680022FFF702
:10528C0081BC4068002281F00101FFF76BBC002358
:10529C0040681A461946FFF75DBC002340681A4661
:1052AC001946FFF74FBC002240681146FFF732BC8D
:1052BC00406800220221FFF735BC002340681A46E3
:1052CC00FFF720BC024B04225A60024A1A60704756
:1052DC000CE70320985A0B00014B1860704700BF75
:1052EC002CE6032008B50B4B43B1FFF791FF036885
:1052FC001B699847002801DDAFF30080064B43B1D2
:10530C0000F05CF903681B699847002801DDAFF3D6
:10531C00008008BD000000000000000008B5FFF789
:10532C00E1FFFFF7BBFA014B186008BD28E703202B
:10533C000548064A064908B5121A00F06BF9054BE8
:10534C00054A1A6008BD00BF00F4032004F40320D2
:10535C00845B0B0000F403201E1C279A07B5002366
:10536C0000931A466FF07701FFF7B2FB03B05DF8BC
:10537C0004FB000007B543880A2B08D0502B0BD137
:10538C00094B1B684BB103B05DF804EB1847FFF7F2
:10539C00E5FF03B05DF804FB002300931A466FF0A1
:1053AC007701FFF795FBF4E718E7032010B51248D7
:1053BC000021FFF71FFC114B1A68114B9A42114B3D
:1053CC000CBF012200221A7001D0FFF7B1FFFFF7CA
:1053DC005DFA044600F034F90B4B13B12046AFF3E1
:1053EC00008000210848FFF785FBBDE81040074806
:1053FC000021FFF763BB00BFE5520B0000F4032054
:10540C001E1C279A14E703200000000081530B0098
:10541C00232813B502D9002002B010BDA0F10B0354
:10542C00022B1AD8174C2178BFF35B8F11F00101B6
:10543C000BD120460191FEF72AFE019928B11248A2
:10544C00FFF710FE2046FEF727FE0F4B1878FFF7EC
:10545C00A5FA0028DFD10120DEE7012809D800F0E9
:10546C006DF80021007CFFF769FA80F00100C0B2F2
:10547C00D2E709380128EED800F0A0F8007CFFF73D
:10548C00BDFAF2E71CE7032020E70320232838B5F8
:10549C0004460D460AD8FF2908D0FFF7B9FF28B1FA
:1054AC0029462046BDE83840FFF700BA38BD38B56C
:1054BC0004460D46FFF702FAFF2810D0062804D840
:1054CC004D2323FA00F0C30709D42046FFF7A0FFB1
:1054DC0028B129462046BDE83840FFF7F7B938BD5A
:1054EC0010B50446FFF7EAF9031FDBB2012B08D90C
:1054FC002046FFF78DFF20B12046BDE81040FFF796
:10550C00EDB9002010BD704738B50A4B036001237C
:10551C00044643610849202000F074F8202560609F
:10552C000549A560284600F06DF8C4E9030520463E
:10553C0038BD00BF18000100CC5A0B0030B50E4D21
:10554C002978BFF35B8F11F0010487B011D1284685
:10555C00FEF79DFD68B16846FFF7D6FF6A46214607
:10556C000648FFF7C5FB2846FEF796FD044800F0F9
:10557C004BF8024807B030BD2CE7032030E703207E
:10558C0013550B007047000038B5044614252A4605
:10559C00002100F04DF8258040250749258128463B
:1055AC00258200F02FF804496060284600F02AF8A4
:1055BC00E060204638BD00BFCC5A0B0030B50E4D14
:1055CC002978BFF35B8F11F0010487B011D1284605
:1055DC00FEF75DFD68B101A8FFF7D6FF01AA2146D1
:1055EC000648FFF7A3FD2846FEF756FD044800F0D9
:1055FC000BF8024807B030BD44E7032048E703200E
:10560C0091550B00FEF73FBD002301461A46184684
:10561C0000F08AB80A44914200F1FF3300D1704780
:10562C0010B511F8014B03F8014F9142F9D110BD9F
:10563C0002440346934200D1704703F8011BF9E77B
:10564C0038B5104B1D68AB6B0446B3B91820FFF787
:10565C00B9FA0246A86320B90B4B0C484221FFF75C
:10566C00C1FA0B490B4BC0E900130B4B83600B23A6
:10567C00838100210120C2E90401AB6B00221C6173
:10568C005A6138BD2CE60320CD5A0B00E45A0B00AE
:10569C000E33CDAB34126DE6ECDE0500164B10B5B7
:1056AC001C68A36BB3B91820FFF78CFAA06328B958
:1056BC000246124B12484E21FFF794FA114A124B34
:1056CC00C0E90023114B83600B238381012200234B
:1056DC00C0E90423A46B0E4A206963690D49424357
:1056EC0001FB0322A0FB0101431C42EB0100C4E9B6
:1056FC00043020F0004010BD2CE60320CD5A0B00E6
:10570C00E45A0B000E33CDAB34126DE6ECDE050023
:10571C002DF451582D7F954C034613F8012B002A7C
:10572C00FBD1181A013870472DE9F843DFF8B8801F
:10573C000646D8F800001F460D46914600F056F874
:10574C00254B1C6834B9254C1C60254B13B11B68C8
:10575C00C4F8883063681F2B07DDD8F8000000F010
:10576C0047F84FF0FF30BDE8F8834EB3D4F888000B
:10577C0088B91C4B23B9D8F8000000F038F8F0E7D2
:10578C004FF48470FFF71EFA0028F4D00023C0E910
:10579C004033C4F88800636840F8239001229A4093
:1057AC0000EB8301D0F800311343C0F80031022E16
:1057BC00C1F8807002BFD0F804311343C0F8043133
:1057CC006368D8F800005A1C0233626044F8235016
:1057DC0000F00EF80020C6E7E8E703205CE70320A2
:1057EC0000000000D14B0B0090E60320704770477F
:1057FC00704700001D400B0059400B0081400B000E
:10580C0085400B0000000000696E7456616C00420C
:10581C006C756520627574746F6E2070726573732D
:10582C002064657465637465642E205374617274AE
:10583C00207468652067616D652100506F696E7416
:10584C0073203D2000486F6C64207468652067727B
:10585C0065656E20627574746F6E2E00204E6F201D
:10586C00706F696E74732061776172646564002077
:10587C004F6E6520706F696E74206177617264651C
:10588C00640053696D6F6E207361797320686F6C5F
:10589C00642074686520677265656E206275747427
:1058AC006F6E2E00203120706F696E7420617761ED
:1058BC00726465640053696D6F6E20736179732037
:1058CC00686F6C64207468652079656C6C6F7720E8
:1058DC00627574746F6E2E005072657373207468E9
:1058EC00652072656420627574746F6E0053696D07
:1058FC006F6E207361797320686F6C6420746865B7
:10590C002072656420627574746F6E00536F6D65E0
:10591C007468696E672077656E742077726F6E6736
:10592C0000426C756520627574746F6E20707265C0
:10593C0073732064657465637465642E20456E749E
:10594C0065722069646C65206D6F646500000000F1
:10595C000000000000000000874C0B007D4C0B0089
:10596C00734C0B00694C0B005D4C0B00514C0B0045
:10597C00794E0B00814E0B00454C0B003D4C0B003F
:10598C00334C0B00294C0B00B14E0B0000000000F7
:10599C0000000000A54C0B00EF4C0B00C74C0B009B
:1059AC00A74C0B00CF4C0B00D74C0B00DF4C0B0063
:1059BC00E74C0B000000000000000000494D0B00FC
:1059CC00394D0B003B4D0B00617070000000000066
:1059DC0000000000394E0B00434E0B004D4E0B00E7
:1059EC00574E0B00614E0B006D4E0B00794E0B00A9
:1059FC00814E0B00894E0B00954E0B009D4E0B00FB
:105A0C00A74E0B00B14E0B0025592D256D2D25648D
:105A1C005425483A254D3A2553257A006173637411
:105A2C00696D65000000000000000000BD500B0017
:105A3C0029510B0001510B009D4F0B00D1500B0055
:105A4C00ED500B00DF500B00FB500B00BF500B0058
:105A5C00C3500B00000000000000000067510B0059
:105A6C00CF510B00A5510B009D4F0B0097510B0014
:105A7C0069510B0079510B00C9510B0089510B0076
:105A8C0061510B000000000000000000C7520B0029
:105A9C00BD520B00B3520B0069520B00A7520B0006
:105AAC009B520B00794E0B00814E0B008F520B005A
:105ABC0087520B007D520B0073520B00B14E0B0042
:105ACC00005245454E54206D616C6C6F63207375AC
:105ADC0063636565646564002F746D702F6A656E11
:105AEC006B696E732D4743432D31302D7069706592
:105AFC006C696E652D34385F32303230313132346E
:105B0C005F313630363138303633392F7372632F7C
:105B1C006E65776C69622F6E65776C69622F6C6944
:105B2C0062632F7374646C69622F72616E642E638E
:105B3C0000000000194C0B00914C0B00294E0B007F
:105B4C00894F0B0065500B0085500B00A9500B00C2
:045B5C00D1520B0017
:105B6000040000001400000003000000474E550030
:105B7000ABF8B1230851E2A59A308031C710B27753
:045B80002538B4E22E
:045B8400000000001D
:105B88000200000006000000040000000100000000
:105B9800030000001300000005000000285A0B0055
:105BA80030E60320000000000000000000000000B4
:105BB80000000000000000000000000000000000DD
:105BC80000000000000000000000000000000000CD
:105BD80000000000000000000000000000000000BD
:105BE80000000000000000000000000000000000AD
:105BF800000000000000000000000000000000009D
:085C080000000000ECE703209E
:105C1000FFFFFFFF00000102030405060708090A51
:105C20000B0C0D0E0F101112131415161718191A4C
:085C30001B1C1D1E1F20280093
:045C38007856341254
:04000003B000401CED
:00000001FF
